Component: ARM Compiler 5.06 update 1 (build 61) Tool: armlink [4d35a8]

==============================================================================

Section Cross References

    stm32f7xx_it.o(i.DMA2_Stream3_IRQHandler) refers to stm32746g_discovery_sd.o(i.BSP_SD_DMA_Rx_IRQHandler) for BSP_SD_DMA_Rx_IRQHandler
    stm32f7xx_it.o(i.DMA2_Stream6_IRQHandler) refers to stm32746g_discovery_sd.o(i.BSP_SD_DMA_Tx_IRQHandler) for BSP_SD_DMA_Tx_IRQHandler
    stm32f7xx_it.o(i.SDMMC1_IRQHandler) refers to stm32746g_discovery_sd.o(i.BSP_SD_IRQHandler) for BSP_SD_IRQHandler
    stm32f7xx_it.o(i.SysTick_Handler) refers to stm32f7xx_hal.o(i.HAL_IncTick) for HAL_IncTick
    main.o(i.CPU_CACHE_Enable) refers to main.o(i.SCB_EnableDCache) for SCB_EnableDCache
    main.o(i.Error_Handler) refers to stm32746g_discovery.o(i.BSP_LED_On) for BSP_LED_On
    main.o(i.Error_Handler) refers to stm32746g_discovery.o(i.BSP_LED_Toggle) for BSP_LED_Toggle
    main.o(i.Error_Handler) refers to stm32f7xx_hal.o(i.HAL_Delay) for HAL_Delay
    main.o(i.SystemClock_Config) refers to stm32f7xx_hal_rcc.o(i.HAL_RCC_OscConfig) for HAL_RCC_OscConfig
    main.o(i.SystemClock_Config) refers to stm32f7xx_hal_pwr_ex.o(i.HAL_PWREx_EnableOverDrive) for HAL_PWREx_EnableOverDrive
    main.o(i.SystemClock_Config) refers to stm32f7xx_hal_rcc.o(i.HAL_RCC_ClockConfig) for HAL_RCC_ClockConfig
    main.o(i.main) refers to main.o(i.CPU_CACHE_Enable) for CPU_CACHE_Enable
    main.o(i.main) refers to stm32f7xx_hal.o(i.HAL_Init) for HAL_Init
    main.o(i.main) refers to main.o(i.SystemClock_Config) for SystemClock_Config
    main.o(i.main) refers to stm32746g_discovery.o(i.BSP_LED_Init) for BSP_LED_Init
    main.o(i.main) refers to ff_gen_drv.o(i.FATFS_LinkDriver) for FATFS_LinkDriver
    main.o(i.main) refers to ff.o(i.f_mount) for f_mount
    main.o(i.main) refers to main.o(i.Error_Handler) for Error_Handler
==============================================================================

Removing Unused input sections from the image.

    Removing stm32f7xx_it.o(.rev16_text), (4 bytes).
    Removing stm32f7xx_it.o(.revsh_text), (4 bytes).
    Removing stm32f7xx_it.o(.rrx_text), (6 bytes).
    Removing main.o(.rev16_text), (4 bytes).
    Removing main.o(.revsh_text), (4 bytes).
    Removing main.o(.rrx_text), (6 bytes).
    Removing stm32f7xx_hal_rcc.o(.rev16_text), (4 bytes).
    Removing stm32f7xx_hal_rcc.o(.revsh_text), (4 bytes).
    Removing stm32f7xx_hal_rcc.o(.rrx_text), (6 bytes).
    Removing stm32f7xx_hal_rcc.o(i.HAL_RCC_CSSCallback), (2 bytes).
    Removing stm32f7xx_hal_rcc.o(i.HAL_RCC_DeInit), (112 bytes).
    Removing stm32f7xx_hal_rcc.o(i.HAL_RCC_DisableCSS), (20 bytes).
    Removing stm32f7xx_hal_rcc.o(i.HAL_RCC_EnableCSS), (20 bytes).
    Removing stm32f7xx_hal_rcc.o(i.HAL_RCC_GetClockConfig), (68 bytes).
    Removing stm32f7xx_hal_rcc.o(i.HAL_RCC_GetOscConfig), (296 bytes).
    Removing stm32f7xx_hal_rcc.o(i.HAL_RCC_GetPCLK1Freq), (44 bytes).
    Removing stm32f7xx_hal_rcc.o(i.HAL_RCC_GetPCLK2Freq), (44 bytes).
    Removing stm32f7xx_hal_rcc.o(i.HAL_RCC_MCOConfig), (184 bytes).
==============================================================================

Image Symbol Table

    Local Symbols

    Symbol Name                              Value     Ov Type        Size  Object(Section)

    ../clib/microlib/division.c              0x00000000   Number         0  uldiv.o ABSOLUTE
    ../clib/microlib/init/entry.s            0x00000000   Number         0  entry10b.o ABSOLUTE
    ../clib/microlib/init/entry.s            0x00000000   Number         0  entry2.o ABSOLUTE
    ../clib/microlib/init/entry.s            0x00000000   Number         0  entry.o ABSOLUTE
    ../clib/microlib/init/entry.s            0x00000000   Number         0  entry11a.o ABSOLUTE
    ../clib/microlib/init/entry.s            0x00000000   Number         0  entry5.o ABSOLUTE
    ../clib/microlib/init/entry.s            0x00000000   Number         0  entry7a.o ABSOLUTE
    ../clib/microlib/init/entry.s            0x00000000   Number         0  entry7b.o ABSOLUTE
    ../clib/microlib/init/entry.s            0x00000000   Number         0  entry8a.o ABSOLUTE
    ../clib/microlib/init/entry.s            0x00000000   Number         0  entry8b.o ABSOLUTE
    ../clib/microlib/init/entry.s            0x00000000   Number         0  entry9a.o ABSOLUTE
    ../clib/microlib/init/entry.s            0x00000000   Number         0  entry9b.o ABSOLUTE
    ../clib/microlib/init/entry.s            0x00000000   Number         0  entry11b.o ABSOLUTE
    ../clib/microlib/init/entry.s            0x00000000   Number         0  entry10a.o ABSOLUTE
    ../clib/microlib/longlong.c              0x00000000   Number         0  llushr.o ABSOLUTE
    ../clib/microlib/longlong.c              0x00000000   Number         0  llshl.o ABSOLUTE
    ../clib/microlib/string/memset.c         0x00000000   Number         0  memseta.o ABSOLUTE
    ..\..\..\..\..\..\Drivers\BSP\STM32746G-Discovery\stm32746g_discovery.c 0x00000000   Number         0  stm32746g_discovery.o ABSOLUTE
    ..\..\..\..\..\..\Drivers\BSP\STM32746G-Discovery\stm32746g_discovery_sd.c 0x00000000   Number         0  stm32746g_discovery_sd.o ABSOLUTE
    ..\..\..\..\..\..\Drivers\STM32F7xx_HAL_Driver\Src\stm32f7xx_hal.c 0x00000000   Number         0  stm32f7xx_hal.o ABSOLUTE
    ..\..\..\..\..\..\Drivers\STM32F7xx_HAL_Driver\Src\stm32f7xx_hal_cortex.c 0x00000000   Number         0  stm32f7xx_hal_cortex.o ABSOLUTE
    ..\..\..\..\..\..\Drivers\STM32F7xx_HAL_Driver\Src\stm32f7xx_hal_dma.c 0x00000000   Number         0  stm32f7xx_hal_dma.o ABSOLUTE
    ..\..\..\..\..\..\Drivers\STM32F7xx_HAL_Driver\Src\stm32f7xx_hal_dma_ex.c 0x00000000   Number         0  stm32f7xx_hal_dma_ex.o ABSOLUTE
    ..\..\..\..\..\..\Drivers\STM32F7xx_HAL_Driver\Src\stm32f7xx_hal_gpio.c 0x00000000   Number         0  stm32f7xx_hal_gpio.o ABSOLUTE
    ..\..\..\..\..\..\Drivers\STM32F7xx_HAL_Driver\Src\stm32f7xx_hal_i2c.c 0x00000000   Number         0  stm32f7xx_hal_i2c.o ABSOLUTE
    ..\..\..\..\..\..\Drivers\STM32F7xx_HAL_Driver\Src\stm32f7xx_hal_i2c_ex.c 0x00000000   Number         0  stm32f7xx_hal_i2c_ex.o ABSOLUTE
    ..\..\..\..\..\..\Drivers\STM32F7xx_HAL_Driver\Src\stm32f7xx_hal_pwr.c 0x00000000   Number         0  stm32f7xx_hal_pwr.o ABSOLUTE
    ..\..\..\..\..\..\Drivers\STM32F7xx_HAL_Driver\Src\stm32f7xx_hal_pwr_ex.c 0x00000000   Number         0  stm32f7xx_hal_pwr_ex.o ABSOLUTE
    ..\..\..\..\..\..\Drivers\STM32F7xx_HAL_Driver\Src\stm32f7xx_hal_rcc.c 0x00000000   Number         0  stm32f7xx_hal_rcc.o ABSOLUTE
    ..\..\..\..\..\..\Drivers\STM32F7xx_HAL_Driver\Src\stm32f7xx_hal_rcc_ex.c 0x00000000   Number         0  stm32f7xx_hal_rcc_ex.o ABSOLUTE
    ..\..\..\..\..\..\Drivers\STM32F7xx_HAL_Driver\Src\stm32f7xx_hal_sd.c 0x00000000   Number         0  stm32f7xx_hal_sd.o ABSOLUTE
    ..\..\..\..\..\..\Drivers\STM32F7xx_HAL_Driver\Src\stm32f7xx_hal_uart.c 0x00000000   Number         0  stm32f7xx_hal_uart.o ABSOLUTE
    ..\..\..\..\..\..\Drivers\STM32F7xx_HAL_Driver\Src\stm32f7xx_ll_sdmmc.c 0x00000000   Number         0  stm32f7xx_ll_sdmmc.o ABSOLUTE
    ..\..\..\..\..\..\Middlewares\Third_Party\FatFs\src\diskio.c 0x00000000   Number         0  diskio.o ABSOLUTE
    ..\..\..\..\..\..\Middlewares\Third_Party\FatFs\src\drivers\sd_diskio.c 0x00000000   Number         0  sd_diskio.o ABSOLUTE
    ..\..\..\..\..\..\Middlewares\Third_Party\FatFs\src\ff.c 0x00000000   Number         0  ff.o ABSOLUTE
    ..\..\..\..\..\..\Middlewares\Third_Party\FatFs\src\ff_gen_drv.c 0x00000000   Number         0  ff_gen_drv.o ABSOLUTE
    ..\Src\main.c                            0x00000000   Number         0  main.o ABSOLUTE
    ..\Src\stm32f7xx_it.c                    0x00000000   Number         0  stm32f7xx_it.o ABSOLUTE
    ..\Src\system_stm32f7xx.c                0x00000000   Number         0  system_stm32f7xx.o ABSOLUTE
    ..\\..\\..\\..\\..\\..\\Drivers\\BSP\\STM32746G-Discovery\\stm32746g_discovery.c 0x00000000   Number         0  stm32746g_discovery.o ABSOLUTE
    ..\\..\\..\\..\\..\\..\\Drivers\\BSP\\STM32746G-Discovery\\stm32746g_discovery_sd.c 0x00000000   Number         0  stm32746g_discovery_sd.o ABSOLUTE
    ..\\..\\..\\..\\..\\..\\Drivers\\STM32F7xx_HAL_Driver\\Src\\stm32f7xx_hal.c 0x00000000   Number         0  stm32f7xx_hal.o ABSOLUTE
    ..\\..\\..\\..\\..\\..\\Drivers\\STM32F7xx_HAL_Driver\\Src\\stm32f7xx_hal_cortex.c 0x00000000   Number         0  stm32f7xx_hal_cortex.o ABSOLUTE
    ..\\..\\..\\..\\..\\..\\Drivers\\STM32F7xx_HAL_Driver\\Src\\stm32f7xx_hal_dma.c 0x00000000   Number         0  stm32f7xx_hal_dma.o ABSOLUTE
    ..\\..\\..\\..\\..\\..\\Drivers\\STM32F7xx_HAL_Driver\\Src\\stm32f7xx_hal_dma_ex.c 0x00000000   Number         0  stm32f7xx_hal_dma_ex.o ABSOLUTE
    ..\\..\\..\\..\\..\\..\\Drivers\\STM32F7xx_HAL_Driver\\Src\\stm32f7xx_hal_gpio.c 0x00000000   Number         0  stm32f7xx_hal_gpio.o ABSOLUTE
    ..\\..\\..\\..\\..\\..\\Drivers\\STM32F7xx_HAL_Driver\\Src\\stm32f7xx_hal_i2c.c 0x00000000   Number         0  stm32f7xx_hal_i2c.o ABSOLUTE
    ..\\..\\..\\..\\..\\..\\Drivers\\STM32F7xx_HAL_Driver\\Src\\stm32f7xx_hal_i2c_ex.c 0x00000000   Number         0  stm32f7xx_hal_i2c_ex.o ABSOLUTE
    ..\\..\\..\\..\\..\\..\\Drivers\\STM32F7xx_HAL_Driver\\Src\\stm32f7xx_hal_pwr.c 0x00000000   Number         0  stm32f7xx_hal_pwr.o ABSOLUTE
    ..\\..\\..\\..\\..\\..\\Drivers\\STM32F7xx_HAL_Driver\\Src\\stm32f7xx_hal_pwr_ex.c 0x00000000   Number         0  stm32f7xx_hal_pwr_ex.o ABSOLUTE
    ..\\..\\..\\..\\..\\..\\Drivers\\STM32F7xx_HAL_Driver\\Src\\stm32f7xx_hal_rcc.c 0x00000000   Number         0  stm32f7xx_hal_rcc.o ABSOLUTE
    ..\\..\\..\\..\\..\\..\\Drivers\\STM32F7xx_HAL_Driver\\Src\\stm32f7xx_hal_rcc_ex.c 0x00000000   Number         0  stm32f7xx_hal_rcc_ex.o ABSOLUTE
    ..\\..\\..\\..\\..\\..\\Drivers\\STM32F7xx_HAL_Driver\\Src\\stm32f7xx_hal_sd.c 0x00000000   Number         0  stm32f7xx_hal_sd.o ABSOLUTE
    ..\\..\\..\\..\\..\\..\\Drivers\\STM32F7xx_HAL_Driver\\Src\\stm32f7xx_hal_uart.c 0x00000000   Number         0  stm32f7xx_hal_uart.o ABSOLUTE
    ..\\..\\..\\..\\..\\..\\Drivers\\STM32F7xx_HAL_Driver\\Src\\stm32f7xx_ll_sdmmc.c 0x00000000   Number         0  stm32f7xx_ll_sdmmc.o ABSOLUTE
    ..\\..\\..\\..\\..\\..\\Middlewares\\Third_Party\\FatFs\\src\\diskio.c 0x00000000   Number         0  diskio.o ABSOLUTE
    ..\\..\\..\\..\\..\\..\\Middlewares\\Third_Party\\FatFs\\src\\drivers\\sd_diskio.c 0x00000000   Number         0  sd_diskio.o ABSOLUTE
    ..\\..\\..\\..\\..\\..\\Middlewares\\Third_Party\\FatFs\\src\\ff.c 0x00000000   Number         0  ff.o ABSOLUTE
    ..\\..\\..\\..\\..\\..\\Middlewares\\Third_Party\\FatFs\\src\\ff_gen_drv.c 0x00000000   Number         0  ff_gen_drv.o ABSOLUTE
    ..\\Src\\main.c                          0x00000000   Number         0  main.o ABSOLUTE
    ..\\Src\\stm32f7xx_it.c                  0x00000000   Number         0  stm32f7xx_it.o ABSOLUTE
    ..\\Src\\system_stm32f7xx.c              0x00000000   Number         0  system_stm32f7xx.o ABSOLUTE
    dc.s                                     0x00000000   Number         0  dc.o ABSOLUTE
    handlers.s                               0x00000000   Number         0  handlers.o ABSOLUTE
    init.s                                   0x00000000   Number         0  init.o ABSOLUTE
    startup_stm32f746xx.s                    0x00000000   Number         0  startup_stm32f746xx.o ABSOLUTE
    RESET                                    0x08000000   Section      456  startup_stm32f746xx.o(RESET)
    .ARM.Collect$$$$00000000                 0x080001c8   Section        0  entry.o(.ARM.Collect$$$$00000000)
    .ARM.Collect$$$$00000001                 0x080001c8   Section        4  entry2.o(.ARM.Collect$$$$00000001)
    .ARM.Collect$$$$00000004                 0x080001cc   Section        4  entry5.o(.ARM.Collect$$$$00000004)
    .ARM.Collect$$$$00000008                 0x080001d0   Section        0  entry7b.o(.ARM.Collect$$$$00000008)
    .ARM.Collect$$$$0000000A                 0x080001d0   Section        0  entry8b.o(.ARM.Collect$$$$0000000A)
    .ARM.Collect$$$$0000000B                 0x080001d0   Section        8  entry9a.o(.ARM.Collect$$$$0000000B)
    .ARM.Collect$$$$0000000D                 0x080001d8   Section        0  entry10a.o(.ARM.Collect$$$$0000000D)
    .ARM.Collect$$$$0000000F                 0x080001d8   Section        0  entry11a.o(.ARM.Collect$$$$0000000F)
    .ARM.Collect$$$$00002712                 0x080001d8   Section        4  entry2.o(.ARM.Collect$$$$00002712)
    __lit__00000000                          0x080001d8   Data           4  entry2.o(.ARM.Collect$$$$00002712)
    .text                                    0x080001dc   Section       36  startup_stm32f746xx.o(.text)
    $v0                                      0x080001dc   Number         0  startup_stm32f746xx.o(.text)
    .text                                    0x08000200   Section        0  uldiv.o(.text)
    .text                                    0x08000262   Section        0  llshl.o(.text)
    .text                                    0x08000280   Section        0  llushr.o(.text)
    .text                                    0x080002a0   Section       36  init.o(.text)
    i.BSP_LED_Init                           0x080002c4   Section        0  stm32746g_discovery.o(i.BSP_LED_Init)
    i.BSP_LED_On                             0x08000324   Section        0  stm32746g_discovery.o(i.BSP_LED_On)
    i.BSP_LED_Toggle                         0x08000348   Section        0  stm32746g_discovery.o(i.BSP_LED_Toggle)
    i.BSP_SD_DMA_Rx_IRQHandler               0x08000368   Section        0  stm32746g_discovery_sd.o(i.BSP_SD_DMA_Rx_IRQHandler)
    i.BSP_SD_DMA_Tx_IRQHandler               0x08000378   Section        0  stm32746g_discovery_sd.o(i.BSP_SD_DMA_Tx_IRQHandler)
    i.BSP_SD_Detect_MspInit                  0x08000388   Section        0  stm32746g_discovery_sd.o(i.BSP_SD_Detect_MspInit)
    i.BSP_SD_GetCardInfo                     0x080003d4   Section        0  stm32746g_discovery_sd.o(i.BSP_SD_GetCardInfo)
    i.BSP_SD_GetStatus                       0x080003e8   Section        0  stm32746g_discovery_sd.o(i.BSP_SD_GetStatus)
    i.BSP_SD_GetTransferStatus               0x080003f8   Section        0  stm32746g_discovery_sd.o(i.BSP_SD_GetTransferStatus)
    i.BSP_SD_IRQHandler                      0x0800041c   Section        0  stm32746g_discovery_sd.o(i.BSP_SD_IRQHandler)
    i.BSP_SD_Init                            0x0800042c   Section        0  stm32746g_discovery_sd.o(i.BSP_SD_Init)
    i.BSP_SD_IsDetected                      0x08000490   Section        0  stm32746g_discovery_sd.o(i.BSP_SD_IsDetected)
    i.BSP_SD_MspInit                         0x080004b0   Section        0  stm32746g_discovery_sd.o(i.BSP_SD_MspInit)
    i.BSP_SD_ReadBlocks                      0x0800064c   Section        0  stm32746g_discovery_sd.o(i.BSP_SD_ReadBlocks)
    i.BSP_SD_WriteBlocks                     0x0800067c   Section        0  stm32746g_discovery_sd.o(i.BSP_SD_WriteBlocks)
    i.BSP_SD_WriteBlocks_DMANB               0x080006ac   Section        0  stm32746g_discovery_sd.o(i.BSP_SD_WriteBlocks_DMANB)
    i.BusFault_Handler                       0x080006e0   Section        0  stm32f7xx_it.o(i.BusFault_Handler)
    i.CPU_CACHE_Enable                       0x080006e4   Section        0  main.o(i.CPU_CACHE_Enable)
    CPU_CACHE_Enable                         0x080006e5   Thumb Code    96  main.o(i.CPU_CACHE_Enable)
    i.DMA2_Stream3_IRQHandler                0x0800074c   Section        0  stm32f7xx_it.o(i.DMA2_Stream3_IRQHandler)
    i.DMA2_Stream6_IRQHandler                0x08000754   Section        0  stm32f7xx_it.o(i.DMA2_Stream6_IRQHandler)
    i.DMA_CalcBaseAndBitshift                0x0800075c   Section        0  stm32f7xx_hal_dma.o(i.DMA_CalcBaseAndBitshift)
    DMA_CalcBaseAndBitshift                  0x0800075d   Thumb Code    46  stm32f7xx_hal_dma.o(i.DMA_CalcBaseAndBitshift)
    i.DMA_SetConfig                          0x08000790   Section        0  stm32f7xx_hal_dma.o(i.DMA_SetConfig)
    DMA_SetConfig                            0x08000791   Thumb Code    44  stm32f7xx_hal_dma.o(i.DMA_SetConfig)
    i.DebugMon_Handler                       0x080007bc   Section        0  stm32f7xx_it.o(i.DebugMon_Handler)
    i.Error_Handler                          0x080007be   Section        0  main.o(i.Error_Handler)
    Error_Handler                            0x080007bf   Thumb Code    22  main.o(i.Error_Handler)
    i.FATFS_LinkDriver                       0x080007d4   Section        0  ff_gen_drv.o(i.FATFS_LinkDriver)
    i.FATFS_LinkDriverEx                     0x080007e8   Section        0  ff_gen_drv.o(i.FATFS_LinkDriverEx)
    i.FATFS_UnLinkDriver                     0x0800083c   Section        0  ff_gen_drv.o(i.FATFS_UnLinkDriver)
    i.FATFS_UnLinkDriverEx                   0x0800084c   Section        0  ff_gen_drv.o(i.FATFS_UnLinkDriverEx)
    i.HAL_DMA_Abort                          0x08000890   Section        0  stm32f7xx_hal_dma.o(i.HAL_DMA_Abort)
    i.HAL_DMA_DeInit                         0x080008ee   Section        0  stm32f7xx_hal_dma.o(i.HAL_DMA_DeInit)
    i.HAL_DMA_IRQHandler                     0x08000954   Section        0  stm32f7xx_hal_dma.o(i.HAL_DMA_IRQHandler)
    i.HAL_DMA_Init                           0x08000b6c   Section        0  stm32f7xx_hal_dma.o(i.HAL_DMA_Init)
    i.HAL_DMA_Start_IT                       0x08000bf0   Section        0  stm32f7xx_hal_dma.o(i.HAL_DMA_Start_IT)
    i.HAL_Delay                              0x08000c5a   Section        0  stm32f7xx_hal.o(i.HAL_Delay)
    i.HAL_GPIO_Init                          0x08000c74   Section        0  stm32f7xx_hal_gpio.o(i.HAL_GPIO_Init)
    i.HAL_GPIO_ReadPin                       0x08000e8c   Section        0  stm32f7xx_hal_gpio.o(i.HAL_GPIO_ReadPin)
    i.HAL_GPIO_TogglePin                     0x08000e9c   Section        0  stm32f7xx_hal_gpio.o(i.HAL_GPIO_TogglePin)
    i.HAL_GPIO_WritePin                      0x08000ea4   Section        0  stm32f7xx_hal_gpio.o(i.HAL_GPIO_WritePin)
    i.HAL_GetTick                            0x08000eb0   Section        0  stm32f7xx_hal.o(i.HAL_GetTick)
    i.HAL_IncTick                            0x08000ebc   Section        0  stm32f7xx_hal.o(i.HAL_IncTick)
    i.HAL_Init                               0x08000ecc   Section        0  stm32f7xx_hal.o(i.HAL_Init)
    i.HAL_InitTick                           0x08000ef4   Section        0  stm32f7xx_hal.o(i.HAL_InitTick)
    i.HAL_MspInit                            0x08000f18   Section        0  stm32f7xx_hal.o(i.HAL_MspInit)
    i.HAL_NVIC_EnableIRQ                     0x08000f1a   Section        0  stm32f7xx_hal_cortex.o(i.HAL_NVIC_EnableIRQ)
    i.HAL_NVIC_SetPriority                   0x08000f34   Section        0  stm32f7xx_hal_cortex.o(i.HAL_NVIC_SetPriority)
    i.HAL_NVIC_SetPriorityGrouping           0x08000fb0   Section        0  stm32f7xx_hal_cortex.o(i.HAL_NVIC_SetPriorityGrouping)
    i.HAL_PWREx_EnableOverDrive              0x08000fd8   Section        0  stm32f7xx_hal_pwr_ex.o(i.HAL_PWREx_EnableOverDrive)
    i.HAL_RCC_ClockConfig                    0x08001068   Section        0  stm32f7xx_hal_rcc.o(i.HAL_RCC_ClockConfig)
    i.HAL_RCC_GetHCLKFreq                    0x080012d0   Section        0  stm32f7xx_hal_rcc.o(i.HAL_RCC_GetHCLKFreq)
    i.HAL_RCC_GetSysClockFreq                0x08001308   Section        0  stm32f7xx_hal_rcc.o(i.HAL_RCC_GetSysClockFreq)
    i.HAL_RCC_OscConfig                      0x080013bc   Section        0  stm32f7xx_hal_rcc.o(i.HAL_RCC_OscConfig)
    i.HAL_SD_CheckWriteOperation             0x0800190c   Section        0  stm32f7xx_hal_sd.o(i.HAL_SD_CheckWriteOperation)
    i.HAL_SD_DMA_TxCpltCallback              0x08001994   Section        0  stm32f7xx_hal_sd.o(i.HAL_SD_DMA_TxCpltCallback)
    i.HAL_SD_DMA_TxErrorCallback             0x08001996   Section        0  stm32f7xx_hal_sd.o(i.HAL_SD_DMA_TxErrorCallback)
    i.HAL_SD_GetStatus                       0x08001998   Section        0  stm32f7xx_hal_sd.o(i.HAL_SD_GetStatus)
    i.HAL_SD_Get_CardInfo                    0x080019ba   Section        0  stm32f7xx_hal_sd.o(i.HAL_SD_Get_CardInfo)
    i.HAL_SD_IRQHandler                      0x08001c7e   Section        0  stm32f7xx_hal_sd.o(i.HAL_SD_IRQHandler)
    i.HAL_SD_Init                            0x08001d20   Section        0  stm32f7xx_hal_sd.o(i.HAL_SD_Init)
    i.HAL_SD_MspInit                         0x08001dbc   Section        0  stm32f7xx_hal_sd.o(i.HAL_SD_MspInit)
    i.HAL_SD_ReadBlocks                      0x08001dbe   Section        0  stm32f7xx_hal_sd.o(i.HAL_SD_ReadBlocks)
    i.HAL_SD_StopTransfer                    0x08001f92   Section        0  stm32f7xx_hal_sd.o(i.HAL_SD_StopTransfer)
    i.HAL_SD_WideBusOperation_Config         0x08001fc8   Section        0  stm32f7xx_hal_sd.o(i.HAL_SD_WideBusOperation_Config)
    i.HAL_SD_WriteBlocks                     0x08002046   Section        0  stm32f7xx_hal_sd.o(i.HAL_SD_WriteBlocks)
    i.HAL_SD_WriteBlocks_DMA                 0x080022b4   Section        0  stm32f7xx_hal_sd.o(i.HAL_SD_WriteBlocks_DMA)
    i.HAL_SD_XferCpltCallback                0x080023d0   Section        0  main.o(i.HAL_SD_XferCpltCallback)
    i.HAL_SD_XferErrorCallback               0x080023d2   Section        0  stm32f7xx_hal_sd.o(i.HAL_SD_XferErrorCallback)
    i.HAL_SYSTICK_Config                     0x080023d4   Section        0  stm32f7xx_hal_cortex.o(i.HAL_SYSTICK_Config)
    i.HardFault_Handler                      0x08002408   Section        0  stm32f7xx_it.o(i.HardFault_Handler)
    i.MemManage_Handler                      0x0800240c   Section        0  stm32f7xx_it.o(i.MemManage_Handler)
    i.NMI_Handler                            0x08002410   Section        0  stm32f7xx_it.o(i.NMI_Handler)
    i.NVIC_GetPriorityGrouping               0x08002414   Section        0  stm32f7xx_hal_cortex.o(i.NVIC_GetPriorityGrouping)
    NVIC_GetPriorityGrouping                 0x08002415   Thumb Code    10  stm32f7xx_hal_cortex.o(i.NVIC_GetPriorityGrouping)
    i.NVIC_SetPriority                       0x08002424   Section        0  stm32f7xx_hal_cortex.o(i.NVIC_SetPriority)
    NVIC_SetPriority                         0x08002425   Thumb Code    32  stm32f7xx_hal_cortex.o(i.NVIC_SetPriority)
    i.PendSV_Handler                         0x0800244c   Section        0  stm32f7xx_it.o(i.PendSV_Handler)
    i.SCB_EnableDCache                       0x08002450   Section        0  main.o(i.SCB_EnableDCache)
    SCB_EnableDCache                         0x08002451   Thumb Code   148  main.o(i.SCB_EnableDCache)
    i.SDMMC1_IRQHandler                      0x080024ec   Section        0  stm32f7xx_it.o(i.SDMMC1_IRQHandler)
    i.SDMMC_DataConfig                       0x080024f4   Section        0  stm32f7xx_ll_sdmmc.o(i.SDMMC_DataConfig)
    i.SDMMC_GetCommandResponse               0x08002520   Section        0  stm32f7xx_ll_sdmmc.o(i.SDMMC_GetCommandResponse)
    i.SDMMC_GetPowerState                    0x08002528   Section        0  stm32f7xx_ll_sdmmc.o(i.SDMMC_GetPowerState)
    i.SDMMC_GetResponse                      0x08002532   Section        0  stm32f7xx_ll_sdmmc.o(i.SDMMC_GetResponse)
    i.SDMMC_Init                             0x08002548   Section        0  stm32f7xx_ll_sdmmc.o(i.SDMMC_Init)
    i.SDMMC_PowerState_ON                    0x0800257c   Section        0  stm32f7xx_ll_sdmmc.o(i.SDMMC_PowerState_ON)
    i.SDMMC_ReadFIFO                         0x08002586   Section        0  stm32f7xx_ll_sdmmc.o(i.SDMMC_ReadFIFO)
    i.SDMMC_SendCommand                      0x0800258e   Section        0  stm32f7xx_ll_sdmmc.o(i.SDMMC_SendCommand)
    i.SDMMC_WriteFIFO                        0x080025b6   Section        0  stm32f7xx_ll_sdmmc.o(i.SDMMC_WriteFIFO)
    i.SD_CmdError                            0x080025c2   Section        0  stm32f7xx_hal_sd.o(i.SD_CmdError)
    SD_CmdError                              0x080025c3   Thumb Code    54  stm32f7xx_hal_sd.o(i.SD_CmdError)
    i.SD_CmdResp1Error                       0x080025f8   Section        0  stm32f7xx_hal_sd.o(i.SD_CmdResp1Error)
    SD_CmdResp1Error                         0x080025f9   Thumb Code   382  stm32f7xx_hal_sd.o(i.SD_CmdResp1Error)
    i.SD_CmdResp2Error                       0x0800277c   Section        0  stm32f7xx_hal_sd.o(i.SD_CmdResp2Error)
    SD_CmdResp2Error                         0x0800277d   Thumb Code    70  stm32f7xx_hal_sd.o(i.SD_CmdResp2Error)
    i.SD_CmdResp3Error                       0x080027c2   Section        0  stm32f7xx_hal_sd.o(i.SD_CmdResp3Error)
    SD_CmdResp3Error                         0x080027c3   Thumb Code    50  stm32f7xx_hal_sd.o(i.SD_CmdResp3Error)
    i.SD_CmdResp6Error                       0x080027f4   Section        0  stm32f7xx_hal_sd.o(i.SD_CmdResp6Error)
    SD_CmdResp6Error                         0x080027f5   Thumb Code   174  stm32f7xx_hal_sd.o(i.SD_CmdResp6Error)
    i.SD_CmdResp7Error                       0x080028a2   Section        0  stm32f7xx_hal_sd.o(i.SD_CmdResp7Error)
    SD_CmdResp7Error                         0x080028a3   Thumb Code   102  stm32f7xx_hal_sd.o(i.SD_CmdResp7Error)
    i.SD_DMA_TxCplt                          0x08002908   Section        0  stm32f7xx_hal_sd.o(i.SD_DMA_TxCplt)
    SD_DMA_TxCplt                            0x08002909   Thumb Code    32  stm32f7xx_hal_sd.o(i.SD_DMA_TxCplt)
    i.SD_DMA_TxError                         0x08002928   Section        0  stm32f7xx_hal_sd.o(i.SD_DMA_TxError)
    SD_DMA_TxError                           0x08002929   Thumb Code    14  stm32f7xx_hal_sd.o(i.SD_DMA_TxError)
    i.SD_FindSCR                             0x08002936   Section        0  stm32f7xx_hal_sd.o(i.SD_FindSCR)
    SD_FindSCR                               0x08002937   Thumb Code   346  stm32f7xx_hal_sd.o(i.SD_FindSCR)
    i.SD_GetState                            0x08002a90   Section        0  stm32f7xx_hal_sd.o(i.SD_GetState)
    SD_GetState                              0x08002a91   Thumb Code    30  stm32f7xx_hal_sd.o(i.SD_GetState)
    i.SD_Initialize_Cards                    0x08002aae   Section        0  stm32f7xx_hal_sd.o(i.SD_Initialize_Cards)
    SD_Initialize_Cards                      0x08002aaf   Thumb Code   266  stm32f7xx_hal_sd.o(i.SD_Initialize_Cards)
    i.SD_IsCardProgramming                   0x08002bb8   Section        0  stm32f7xx_hal_sd.o(i.SD_IsCardProgramming)
    SD_IsCardProgramming                     0x08002bb9   Thumb Code   466  stm32f7xx_hal_sd.o(i.SD_IsCardProgramming)
    i.SD_PowerON                             0x08002d90   Section        0  stm32f7xx_hal_sd.o(i.SD_PowerON)
    SD_PowerON                               0x08002d91   Thumb Code   360  stm32f7xx_hal_sd.o(i.SD_PowerON)
    i.SD_Select_Deselect                     0x08002efc   Section        0  stm32f7xx_hal_sd.o(i.SD_Select_Deselect)
    SD_Select_Deselect                       0x08002efd   Thumb Code    56  stm32f7xx_hal_sd.o(i.SD_Select_Deselect)
    i.SD_SendStatus                          0x08002f34   Section        0  stm32f7xx_hal_sd.o(i.SD_SendStatus)
    SD_SendStatus                            0x08002f35   Thumb Code    82  stm32f7xx_hal_sd.o(i.SD_SendStatus)
    i.SD_WideBus_Disable                     0x08002f86   Section        0  stm32f7xx_hal_sd.o(i.SD_WideBus_Disable)
    SD_WideBus_Disable                       0x08002f87   Thumb Code   154  stm32f7xx_hal_sd.o(i.SD_WideBus_Disable)
    i.SD_WideBus_Enable                      0x08003020   Section        0  stm32f7xx_hal_sd.o(i.SD_WideBus_Enable)
    SD_WideBus_Enable                        0x08003021   Thumb Code   154  stm32f7xx_hal_sd.o(i.SD_WideBus_Enable)
    i.SD_initialize                          0x080030bc   Section        0  sd_diskio.o(i.SD_initialize)
    i.SD_ioctl                               0x080030e4   Section        0  sd_diskio.o(i.SD_ioctl)
    i.SD_read                                0x08003160   Section        0  sd_diskio.o(i.SD_read)
    i.SD_status                              0x0800318c   Section        0  sd_diskio.o(i.SD_status)
    i.SD_write                               0x080031bc   Section        0  sd_diskio.o(i.SD_write)
    i.SVC_Handler                            0x0800320c   Section        0  stm32f7xx_it.o(i.SVC_Handler)
    i.SysTick_Handler                        0x0800320e   Section        0  stm32f7xx_it.o(i.SysTick_Handler)
    i.SystemClock_Config                     0x08003216   Section        0  main.o(i.SystemClock_Config)
    SystemClock_Config                       0x08003217   Thumb Code   110  main.o(i.SystemClock_Config)
    i.SystemInit                             0x08003284   Section        0  system_stm32f7xx.o(i.SystemInit)
    i.UsageFault_Handler                     0x080032e8   Section        0  stm32f7xx_it.o(i.UsageFault_Handler)
    i.__scatterload_copy                     0x080032ec   Section       14  handlers.o(i.__scatterload_copy)
    i.__scatterload_null                     0x080032fa   Section        2  handlers.o(i.__scatterload_null)
    i.__scatterload_zeroinit                 0x080032fc   Section       14  handlers.o(i.__scatterload_zeroinit)
    i.check_fs                               0x0800330c   Section        0  ff.o(i.check_fs)
    check_fs                                 0x0800330d   Thumb Code   146  ff.o(i.check_fs)
    i.chk_chr                                0x080033a4   Section        0  ff.o(i.chk_chr)
    chk_chr                                  0x080033a5   Thumb Code    20  ff.o(i.chk_chr)
    i.chk_lock                               0x080033b8   Section        0  ff.o(i.chk_lock)
    chk_lock                                 0x080033b9   Thumb Code   140  ff.o(i.chk_lock)
    i.clear_lock                             0x08003448   Section        0  ff.o(i.clear_lock)
    clear_lock                               0x08003449   Thumb Code    42  ff.o(i.clear_lock)
    i.clmt_clust                             0x08003478   Section        0  ff.o(i.clmt_clust)
    clmt_clust                               0x08003479   Thumb Code    56  ff.o(i.clmt_clust)
    i.clust2sect                             0x080034b0   Section        0  ff.o(i.clust2sect)
    i.create_chain                           0x080034d0   Section        0  ff.o(i.create_chain)
    create_chain                             0x080034d1   Thumb Code   234  ff.o(i.create_chain)
    i.create_name                            0x080035bc   Section        0  ff.o(i.create_name)
    create_name                              0x080035bd   Thumb Code   268  ff.o(i.create_name)
    i.dec_lock                               0x080036dc   Section        0  ff.o(i.dec_lock)
    dec_lock                                 0x080036dd   Thumb Code    72  ff.o(i.dec_lock)
    i.dir_alloc                              0x08003728   Section        0  ff.o(i.dir_alloc)
    dir_alloc                                0x08003729   Thumb Code   100  ff.o(i.dir_alloc)
    i.dir_find                               0x0800378c   Section        0  ff.o(i.dir_find)
    dir_find                                 0x0800378d   Thumb Code   100  ff.o(i.dir_find)
    i.dir_next                               0x080037f0   Section        0  ff.o(i.dir_next)
    dir_next                                 0x080037f1   Thumb Code   346  ff.o(i.dir_next)
    i.dir_register                           0x0800394a   Section        0  ff.o(i.dir_register)
    dir_register                             0x0800394b   Thumb Code    70  ff.o(i.dir_register)
    i.dir_sdi                                0x08003990   Section        0  ff.o(i.dir_sdi)
    dir_sdi                                  0x08003991   Thumb Code   200  ff.o(i.dir_sdi)
    i.disk_initialize                        0x08003a58   Section        0  diskio.o(i.disk_initialize)
    i.disk_ioctl                             0x08003a84   Section        0  diskio.o(i.disk_ioctl)
    i.disk_read                              0x08003aac   Section        0  diskio.o(i.disk_read)
    i.disk_status                            0x08003adc   Section        0  diskio.o(i.disk_status)
    i.disk_write                             0x08003af8   Section        0  diskio.o(i.disk_write)
    i.enq_lock                               0x08003b28   Section        0  ff.o(i.enq_lock)
    enq_lock                                 0x08003b29   Thumb Code    36  ff.o(i.enq_lock)
    i.f_close                                0x08003b50   Section        0  ff.o(i.f_close)
    i.f_mkfs                                 0x08003b80   Section        0  ff.o(i.f_mkfs)
    i.f_mount                                0x080041c4   Section        0  ff.o(i.f_mount)
    i.f_open                                 0x08004228   Section        0  ff.o(i.f_open)
    i.f_sync                                 0x080043e6   Section        0  ff.o(i.f_sync)
    i.f_write                                0x080044b0   Section        0  ff.o(i.f_write)
    i.find_volume                            0x08004708   Section        0  ff.o(i.find_volume)
    find_volume                              0x08004709   Thumb Code   970  ff.o(i.find_volume)
    i.follow_path                            0x08004ae4   Section        0  ff.o(i.follow_path)
    follow_path                              0x08004ae5   Thumb Code   156  ff.o(i.follow_path)
    i.get_fat                                0x08004b80   Section        0  ff.o(i.get_fat)
    i.get_fattime                            0x08004c6e   Section        0  diskio.o(i.get_fattime)
    i.get_ldnumber                           0x08004c72   Section        0  ff.o(i.get_ldnumber)
    get_ldnumber                             0x08004c73   Thumb Code    72  ff.o(i.get_ldnumber)
    i.inc_lock                               0x08004cbc   Section        0  ff.o(i.inc_lock)
    inc_lock                                 0x08004cbd   Thumb Code   226  ff.o(i.inc_lock)
    i.ld_clust                               0x08004da4   Section        0  ff.o(i.ld_clust)
    ld_clust                                 0x08004da5   Thumb Code    34  ff.o(i.ld_clust)
    i.main                                   0x08004dc8   Section        0  main.o(i.main)
    i.mem_cmp                                0x08004e94   Section        0  ff.o(i.mem_cmp)
    mem_cmp                                  0x08004e95   Thumb Code    38  ff.o(i.mem_cmp)
    i.mem_cpy                                0x08004eba   Section        0  ff.o(i.mem_cpy)
    mem_cpy                                  0x08004ebb   Thumb Code    26  ff.o(i.mem_cpy)
    i.mem_set                                0x08004ed4   Section        0  ff.o(i.mem_set)
    mem_set                                  0x08004ed5   Thumb Code    20  ff.o(i.mem_set)
    i.move_window                            0x08004ee8   Section        0  ff.o(i.move_window)
    move_window                              0x08004ee9   Thumb Code    56  ff.o(i.move_window)
    i.put_fat                                0x08004f20   Section        0  ff.o(i.put_fat)
    i.remove_chain                           0x08005066   Section        0  ff.o(i.remove_chain)
    remove_chain                             0x08005067   Thumb Code   122  ff.o(i.remove_chain)
    i.setSDBlocking                          0x080050e0   Section        0  sd_diskio.o(i.setSDBlocking)
    i.st_clust                               0x080050ec   Section        0  ff.o(i.st_clust)
    st_clust                                 0x080050ed   Thumb Code    16  ff.o(i.st_clust)
    i.sync_fs                                0x080050fc   Section        0  ff.o(i.sync_fs)
    sync_fs                                  0x080050fd   Thumb Code   244  ff.o(i.sync_fs)
    i.sync_window                            0x080051f0   Section        0  ff.o(i.sync_window)
    sync_window                              0x080051f1   Thumb Code    96  ff.o(i.sync_window)
    i.validate                               0x08005250   Section        0  ff.o(i.validate)
    validate                                 0x08005251   Thumb Code    66  ff.o(i.validate)
    .constdata                               0x08005292   Section     4241  main.o(.constdata)
    wtext                                    0x08005292   Data        4241  main.o(.constdata)
    .constdata                               0x08006323   Section       16  stm32f7xx_hal_rcc.o(.constdata)
    .constdata                               0x08006333   Section        8  stm32f7xx_hal_dma.o(.constdata)
    flagBitshiftOffset                       0x08006333   Data           8  stm32f7xx_hal_dma.o(.constdata)
    .constdata                               0x0800633c   Section       20  sd_diskio.o(.constdata)
    .constdata                               0x08006350   Section      172  ff.o(.constdata)
    ExCvt                                    0x08006350   Data         128  ff.o(.constdata)
    vst                                      0x080063d0   Data          22  ff.o(.constdata)
    cst                                      0x080063e6   Data          22  ff.o(.constdata)
    .constdata                               0x080063fc   Section       24  stm32746g_discovery.o(.constdata)
    .data                                    0x20000000   Section        5  main.o(.data)
    transferComplete                         0x20000004   Data           1  main.o(.data)
    .data                                    0x20000008   Section        4  stm32f7xx_hal.o(.data)
    uwTick                                   0x20000008   Data           4  stm32f7xx_hal.o(.data)
    .data                                    0x2000000c   Section        2  sd_diskio.o(.data)
    Stat                                     0x2000000c   Data           1  sd_diskio.o(.data)
    blocking                                 0x2000000d   Data           1  sd_diskio.o(.data)
    .data                                    0x20000010   Section        6  ff.o(.data)
    FatFs                                    0x20000010   Data           4  ff.o(.data)
    Fsid                                     0x20000014   Data           2  ff.o(.data)
    .data                                    0x20000018   Section       20  system_stm32f7xx.o(.data)
    .bss                                     0x2000002c   Section     1116  main.o(.bss)
    .bss                                     0x20000488   Section       12  ff_gen_drv.o(.bss)
    .bss                                     0x20000494   Section       24  ff.o(.bss)
    Files                                    0x20000494   Data          24  ff.o(.bss)
    .bss                                     0x200004b0   Section      536  stm32746g_discovery_sd.o(.bss)
    uSdHandle                                0x200004b0   Data          96  stm32746g_discovery_sd.o(.bss)
    uSdCardInfo                              0x20000510   Data          88  stm32746g_discovery_sd.o(.bss)
    dma_rx_handle                            0x20000568   Data          88  stm32746g_discovery_sd.o(.bss)
    dma_tx_handle                            0x200005c0   Data          88  stm32746g_discovery_sd.o(.bss)
    dma_rx_handle                            0x20000618   Data          88  stm32746g_discovery_sd.o(.bss)
    dma_tx_handle                            0x20000670   Data          88  stm32746g_discovery_sd.o(.bss)
    STACK                                    0x200006c8   Section     1152  startup_stm32f746xx.o(STACK)

    Global Symbols

    Symbol Name                              Value     Ov Type        Size  Object(Section)

    BuildAttributes$$THM_ISAv4$E$P$D$K$B$S$7EM$VFPi5$EXTD16$VFPS$VFMA$PE$PLD8$A:L22UL41UL21$X:L11$S22US41US21$IEEE1$IW$USESV6$~STKCKD$USESV7$~SHL$OSPACE$EBA8$MICROLIB$REQ8$PRES8$EABIv2 0x00000000   Number         0  anon$$obj.o ABSOLUTE
    __ARM_use_no_argv                        0x00000000   Number         0  main.o ABSOLUTE
    __cpp_initialize__aeabi_                  - Undefined Weak Reference
    __cxa_finalize                            - Undefined Weak Reference
    __decompress                              - Undefined Weak Reference
    _clock_init                               - Undefined Weak Reference
    _microlib_exit                            - Undefined Weak Reference
    __Vectors_Size                           0x000001c8   Number         0  startup_stm32f746xx.o ABSOLUTE
    __Vectors                                0x08000000   Data           4  startup_stm32f746xx.o(RESET)
    __Vectors_End                            0x080001c8   Data           0  startup_stm32f746xx.o(RESET)
    __main                                   0x080001c9   Thumb Code     0  entry.o(.ARM.Collect$$$$00000000)
    _main_stk                                0x080001c9   Thumb Code     0  entry2.o(.ARM.Collect$$$$00000001)
    _main_scatterload                        0x080001cd   Thumb Code     0  entry5.o(.ARM.Collect$$$$00000004)
    __main_after_scatterload                 0x080001d1   Thumb Code     0  entry5.o(.ARM.Collect$$$$00000004)
    _main_clock                              0x080001d1   Thumb Code     0  entry7b.o(.ARM.Collect$$$$00000008)
    _main_cpp_init                           0x080001d1   Thumb Code     0  entry8b.o(.ARM.Collect$$$$0000000A)
    _main_init                               0x080001d1   Thumb Code     0  entry9a.o(.ARM.Collect$$$$0000000B)
    __rt_final_cpp                           0x080001d9   Thumb Code     0  entry10a.o(.ARM.Collect$$$$0000000D)
    __rt_final_exit                          0x080001d9   Thumb Code     0  entry11a.o(.ARM.Collect$$$$0000000F)
    Reset_Handler                            0x080001dd   Thumb Code     8  startup_stm32f746xx.o(.text)
    ADC_IRQHandler                           0x080001f7   Thumb Code     0  startup_stm32f746xx.o(.text)
    CAN1_RX0_IRQHandler                      0x080001f7   Thumb Code     0  startup_stm32f746xx.o(.text)
    CAN1_RX1_IRQHandler                      0x080001f7   Thumb Code     0  startup_stm32f746xx.o(.text)
    CAN1_SCE_IRQHandler                      0x080001f7   Thumb Code     0  startup_stm32f746xx.o(.text)
    CAN1_TX_IRQHandler                       0x080001f7   Thumb Code     0  startup_stm32f746xx.o(.text)
    CAN2_RX0_IRQHandler                      0x080001f7   Thumb Code     0  startup_stm32f746xx.o(.text)
    CAN2_RX1_IRQHandler                      0x080001f7   Thumb Code     0  startup_stm32f746xx.o(.text)
    CAN2_SCE_IRQHandler                      0x080001f7   Thumb Code     0  startup_stm32f746xx.o(.text)
    CAN2_TX_IRQHandler                       0x080001f7   Thumb Code     0  startup_stm32f746xx.o(.text)
    CEC_IRQHandler                           0x080001f7   Thumb Code     0  startup_stm32f746xx.o(.text)
    DCMI_IRQHandler                          0x080001f7   Thumb Code     0  startup_stm32f746xx.o(.text)
    DMA1_Stream0_IRQHandler                  0x080001f7   Thumb Code     0  startup_stm32f746xx.o(.text)
    DMA1_Stream1_IRQHandler                  0x080001f7   Thumb Code     0  startup_stm32f746xx.o(.text)
    DMA1_Stream2_IRQHandler                  0x080001f7   Thumb Code     0  startup_stm32f746xx.o(.text)
    DMA1_Stream3_IRQHandler                  0x080001f7   Thumb Code     0  startup_stm32f746xx.o(.text)
    DMA1_Stream4_IRQHandler                  0x080001f7   Thumb Code     0  startup_stm32f746xx.o(.text)
    DMA1_Stream5_IRQHandler                  0x080001f7   Thumb Code     0  startup_stm32f746xx.o(.text)
    DMA1_Stream6_IRQHandler                  0x080001f7   Thumb Code     0  startup_stm32f746xx.o(.text)
    DMA1_Stream7_IRQHandler                  0x080001f7   Thumb Code     0  startup_stm32f746xx.o(.text)
    DMA2D_IRQHandler                         0x080001f7   Thumb Code     0  startup_stm32f746xx.o(.text)
    DMA2_Stream0_IRQHandler                  0x080001f7   Thumb Code     0  startup_stm32f746xx.o(.text)
    DMA2_Stream1_IRQHandler                  0x080001f7   Thumb Code     0  startup_stm32f746xx.o(.text)
    DMA2_Stream2_IRQHandler                  0x080001f7   Thumb Code     0  startup_stm32f746xx.o(.text)
    DMA2_Stream4_IRQHandler                  0x080001f7   Thumb Code     0  startup_stm32f746xx.o(.text)
    DMA2_Stream5_IRQHandler                  0x080001f7   Thumb Code     0  startup_stm32f746xx.o(.text)
    DMA2_Stream7_IRQHandler                  0x080001f7   Thumb Code     0  startup_stm32f746xx.o(.text)
    ETH_IRQHandler                           0x080001f7   Thumb Code     0  startup_stm32f746xx.o(.text)
    ETH_WKUP_IRQHandler                      0x080001f7   Thumb Code     0  startup_stm32f746xx.o(.text)
    EXTI0_IRQHandler                         0x080001f7   Thumb Code     0  startup_stm32f746xx.o(.text)
    EXTI15_10_IRQHandler                     0x080001f7   Thumb Code     0  startup_stm32f746xx.o(.text)
    EXTI1_IRQHandler                         0x080001f7   Thumb Code     0  startup_stm32f746xx.o(.text)
    EXTI2_IRQHandler                         0x080001f7   Thumb Code     0  startup_stm32f746xx.o(.text)
    EXTI3_IRQHandler                         0x080001f7   Thumb Code     0  startup_stm32f746xx.o(.text)
    EXTI4_IRQHandler                         0x080001f7   Thumb Code     0  startup_stm32f746xx.o(.text)
    EXTI9_5_IRQHandler                       0x080001f7   Thumb Code     0  startup_stm32f746xx.o(.text)
    FLASH_IRQHandler                         0x080001f7   Thumb Code     0  startup_stm32f746xx.o(.text)
    FMC_IRQHandler                           0x080001f7   Thumb Code     0  startup_stm32f746xx.o(.text)
    FPU_IRQHandler                           0x080001f7   Thumb Code     0  startup_stm32f746xx.o(.text)
    I2C1_ER_IRQHandler                       0x080001f7   Thumb Code     0  startup_stm32f746xx.o(.text)
    I2C1_EV_IRQHandler                       0x080001f7   Thumb Code     0  startup_stm32f746xx.o(.text)
    I2C2_ER_IRQHandler                       0x080001f7   Thumb Code     0  startup_stm32f746xx.o(.text)
    I2C2_EV_IRQHandler                       0x080001f7   Thumb Code     0  startup_stm32f746xx.o(.text)
    I2C3_ER_IRQHandler                       0x080001f7   Thumb Code     0  startup_stm32f746xx.o(.text)
    I2C3_EV_IRQHandler                       0x080001f7   Thumb Code     0  startup_stm32f746xx.o(.text)
    I2C4_ER_IRQHandler                       0x080001f7   Thumb Code     0  startup_stm32f746xx.o(.text)
    I2C4_EV_IRQHandler                       0x080001f7   Thumb Code     0  startup_stm32f746xx.o(.text)
    LPTIM1_IRQHandler                        0x080001f7   Thumb Code     0  startup_stm32f746xx.o(.text)
    LTDC_ER_IRQHandler                       0x080001f7   Thumb Code     0  startup_stm32f746xx.o(.text)
    LTDC_IRQHandler                          0x080001f7   Thumb Code     0  startup_stm32f746xx.o(.text)
    OTG_FS_IRQHandler                        0x080001f7   Thumb Code     0  startup_stm32f746xx.o(.text)
    OTG_FS_WKUP_IRQHandler                   0x080001f7   Thumb Code     0  startup_stm32f746xx.o(.text)
    OTG_HS_EP1_IN_IRQHandler                 0x080001f7   Thumb Code     0  startup_stm32f746xx.o(.text)
    OTG_HS_EP1_OUT_IRQHandler                0x080001f7   Thumb Code     0  startup_stm32f746xx.o(.text)
    OTG_HS_IRQHandler                        0x080001f7   Thumb Code     0  startup_stm32f746xx.o(.text)
    OTG_HS_WKUP_IRQHandler                   0x080001f7   Thumb Code     0  startup_stm32f746xx.o(.text)
    PVD_IRQHandler                           0x080001f7   Thumb Code     0  startup_stm32f746xx.o(.text)
    QUADSPI_IRQHandler                       0x080001f7   Thumb Code     0  startup_stm32f746xx.o(.text)
    RCC_IRQHandler                           0x080001f7   Thumb Code     0  startup_stm32f746xx.o(.text)
    RNG_IRQHandler                           0x080001f7   Thumb Code     0  startup_stm32f746xx.o(.text)
    RTC_Alarm_IRQHandler                     0x080001f7   Thumb Code     0  startup_stm32f746xx.o(.text)
    RTC_WKUP_IRQHandler                      0x080001f7   Thumb Code     0  startup_stm32f746xx.o(.text)
    SAI1_IRQHandler                          0x080001f7   Thumb Code     0  startup_stm32f746xx.o(.text)
    SAI2_IRQHandler                          0x080001f7   Thumb Code     0  startup_stm32f746xx.o(.text)
    SPDIF_RX_IRQHandler                      0x080001f7   Thumb Code     0  startup_stm32f746xx.o(.text)
    SPI1_IRQHandler                          0x080001f7   Thumb Code     0  startup_stm32f746xx.o(.text)
    SPI2_IRQHandler                          0x080001f7   Thumb Code     0  startup_stm32f746xx.o(.text)
    SPI3_IRQHandler                          0x080001f7   Thumb Code     0  startup_stm32f746xx.o(.text)
    SPI4_IRQHandler                          0x080001f7   Thumb Code     0  startup_stm32f746xx.o(.text)
    SPI5_IRQHandler                          0x080001f7   Thumb Code     0  startup_stm32f746xx.o(.text)
    SPI6_IRQHandler                          0x080001f7   Thumb Code     0  startup_stm32f746xx.o(.text)
    TAMP_STAMP_IRQHandler                    0x080001f7   Thumb Code     0  startup_stm32f746xx.o(.text)
    TIM1_BRK_TIM9_IRQHandler                 0x080001f7   Thumb Code     0  startup_stm32f746xx.o(.text)
    TIM1_CC_IRQHandler                       0x080001f7   Thumb Code     0  startup_stm32f746xx.o(.text)
    TIM1_TRG_COM_TIM11_IRQHandler            0x080001f7   Thumb Code     0  startup_stm32f746xx.o(.text)
    TIM1_UP_TIM10_IRQHandler                 0x080001f7   Thumb Code     0  startup_stm32f746xx.o(.text)
    TIM2_IRQHandler                          0x080001f7   Thumb Code     0  startup_stm32f746xx.o(.text)
    TIM3_IRQHandler                          0x080001f7   Thumb Code     0  startup_stm32f746xx.o(.text)
    TIM4_IRQHandler                          0x080001f7   Thumb Code     0  startup_stm32f746xx.o(.text)
    TIM5_IRQHandler                          0x080001f7   Thumb Code     0  startup_stm32f746xx.o(.text)
    TIM6_DAC_IRQHandler                      0x080001f7   Thumb Code     0  startup_stm32f746xx.o(.text)
    TIM7_IRQHandler                          0x080001f7   Thumb Code     0  startup_stm32f746xx.o(.text)
    TIM8_BRK_TIM12_IRQHandler                0x080001f7   Thumb Code     0  startup_stm32f746xx.o(.text)
    TIM8_CC_IRQHandler                       0x080001f7   Thumb Code     0  startup_stm32f746xx.o(.text)
    TIM8_TRG_COM_TIM14_IRQHandler            0x080001f7   Thumb Code     0  startup_stm32f746xx.o(.text)
    TIM8_UP_TIM13_IRQHandler                 0x080001f7   Thumb Code     0  startup_stm32f746xx.o(.text)
    UART4_IRQHandler                         0x080001f7   Thumb Code     0  startup_stm32f746xx.o(.text)
    UART5_IRQHandler                         0x080001f7   Thumb Code     0  startup_stm32f746xx.o(.text)
    UART7_IRQHandler                         0x080001f7   Thumb Code     0  startup_stm32f746xx.o(.text)
    UART8_IRQHandler                         0x080001f7   Thumb Code     0  startup_stm32f746xx.o(.text)
    USART1_IRQHandler                        0x080001f7   Thumb Code     0  startup_stm32f746xx.o(.text)
    USART2_IRQHandler                        0x080001f7   Thumb Code     0  startup_stm32f746xx.o(.text)
    USART3_IRQHandler                        0x080001f7   Thumb Code     0  startup_stm32f746xx.o(.text)
    USART6_IRQHandler                        0x080001f7   Thumb Code     0  startup_stm32f746xx.o(.text)
    WWDG_IRQHandler                          0x080001f7   Thumb Code     0  startup_stm32f746xx.o(.text)
    __aeabi_uldivmod                         0x08000201   Thumb Code    98  uldiv.o(.text)
    __aeabi_llsl                             0x08000263   Thumb Code    30  llshl.o(.text)
    _ll_shift_l                              0x08000263   Thumb Code     0  llshl.o(.text)
    __aeabi_llsr                             0x08000281   Thumb Code    32  llushr.o(.text)
    _ll_ushift_r                             0x08000281   Thumb Code     0  llushr.o(.text)
    __scatterload                            0x080002a1   Thumb Code    28  init.o(.text)
    __scatterload_rt2                        0x080002a1   Thumb Code     0  init.o(.text)
    BSP_LED_Init                             0x080002c5   Thumb Code    84  stm32746g_discovery.o(i.BSP_LED_Init)
    BSP_LED_On                               0x08000325   Thumb Code    26  stm32746g_discovery.o(i.BSP_LED_On)
    BSP_LED_Toggle                           0x08000349   Thumb Code    24  stm32746g_discovery.o(i.BSP_LED_Toggle)
    BSP_SD_DMA_Rx_IRQHandler                 0x08000369   Thumb Code    12  stm32746g_discovery_sd.o(i.BSP_SD_DMA_Rx_IRQHandler)
    BSP_SD_DMA_Tx_IRQHandler                 0x08000379   Thumb Code    12  stm32746g_discovery_sd.o(i.BSP_SD_DMA_Tx_IRQHandler)
    BSP_SD_Detect_MspInit                    0x08000389   Thumb Code    66  stm32746g_discovery_sd.o(i.BSP_SD_Detect_MspInit)
    BSP_SD_GetCardInfo                       0x080003d5   Thumb Code    14  stm32746g_discovery_sd.o(i.BSP_SD_GetCardInfo)
    BSP_SD_GetStatus                         0x080003e9   Thumb Code    10  stm32746g_discovery_sd.o(i.BSP_SD_GetStatus)
    BSP_SD_GetTransferStatus                 0x080003f9   Thumb Code    32  stm32746g_discovery_sd.o(i.BSP_SD_GetTransferStatus)
    BSP_SD_IRQHandler                        0x0800041d   Thumb Code    10  stm32746g_discovery_sd.o(i.BSP_SD_IRQHandler)
    BSP_SD_Init                              0x0800042d   Thumb Code    88  stm32746g_discovery_sd.o(i.BSP_SD_Init)
    BSP_SD_IsDetected                        0x08000491   Thumb Code    28  stm32746g_discovery_sd.o(i.BSP_SD_IsDetected)
    BSP_SD_MspInit                           0x080004b1   Thumb Code   386  stm32746g_discovery_sd.o(i.BSP_SD_MspInit)
    BSP_SD_ReadBlocks                        0x0800064d   Thumb Code    42  stm32746g_discovery_sd.o(i.BSP_SD_ReadBlocks)
    BSP_SD_WriteBlocks                       0x0800067d   Thumb Code    42  stm32746g_discovery_sd.o(i.BSP_SD_WriteBlocks)
    BSP_SD_WriteBlocks_DMANB                 0x080006ad   Thumb Code    46  stm32746g_discovery_sd.o(i.BSP_SD_WriteBlocks_DMANB)
    BusFault_Handler                         0x080006e1   Thumb Code     4  stm32f7xx_it.o(i.BusFault_Handler)
    DMA2_Stream3_IRQHandler                  0x0800074d   Thumb Code     8  stm32f7xx_it.o(i.DMA2_Stream3_IRQHandler)
    DMA2_Stream6_IRQHandler                  0x08000755   Thumb Code     8  stm32f7xx_it.o(i.DMA2_Stream6_IRQHandler)
    DebugMon_Handler                         0x080007bd   Thumb Code     2  stm32f7xx_it.o(i.DebugMon_Handler)
    FATFS_LinkDriver                         0x080007d5   Thumb Code    18  ff_gen_drv.o(i.FATFS_LinkDriver)
    FATFS_LinkDriverEx                       0x080007e9   Thumb Code    78  ff_gen_drv.o(i.FATFS_LinkDriverEx)
    FATFS_UnLinkDriver                       0x0800083d   Thumb Code    14  ff_gen_drv.o(i.FATFS_UnLinkDriver)
    FATFS_UnLinkDriverEx                     0x0800084d   Thumb Code    62  ff_gen_drv.o(i.FATFS_UnLinkDriverEx)
    HAL_DMA_Abort                            0x08000891   Thumb Code    94  stm32f7xx_hal_dma.o(i.HAL_DMA_Abort)
    HAL_DMA_DeInit                           0x080008ef   Thumb Code   100  stm32f7xx_hal_dma.o(i.HAL_DMA_DeInit)
    HAL_DMA_IRQHandler                       0x08000955   Thumb Code   530  stm32f7xx_hal_dma.o(i.HAL_DMA_IRQHandler)
    HAL_DMA_Init                             0x08000b6d   Thumb Code   128  stm32f7xx_hal_dma.o(i.HAL_DMA_Init)
    HAL_DMA_Start_IT                         0x08000bf1   Thumb Code   106  stm32f7xx_hal_dma.o(i.HAL_DMA_Start_IT)
    HAL_Delay                                0x08000c5b   Thumb Code    26  stm32f7xx_hal.o(i.HAL_Delay)
    HAL_GPIO_Init                            0x08000c75   Thumb Code   484  stm32f7xx_hal_gpio.o(i.HAL_GPIO_Init)
    HAL_GPIO_ReadPin                         0x08000e8d   Thumb Code    16  stm32f7xx_hal_gpio.o(i.HAL_GPIO_ReadPin)
    HAL_GPIO_TogglePin                       0x08000e9d   Thumb Code     8  stm32f7xx_hal_gpio.o(i.HAL_GPIO_TogglePin)
    HAL_GPIO_WritePin                        0x08000ea5   Thumb Code    12  stm32f7xx_hal_gpio.o(i.HAL_GPIO_WritePin)
    HAL_GetTick                              0x08000eb1   Thumb Code     6  stm32f7xx_hal.o(i.HAL_GetTick)
    HAL_IncTick                              0x08000ebd   Thumb Code    12  stm32f7xx_hal.o(i.HAL_IncTick)
    HAL_Init                                 0x08000ecd   Thumb Code    34  stm32f7xx_hal.o(i.HAL_Init)
    HAL_InitTick                             0x08000ef5   Thumb Code    36  stm32f7xx_hal.o(i.HAL_InitTick)
    HAL_MspInit                              0x08000f19   Thumb Code     2  stm32f7xx_hal.o(i.HAL_MspInit)
    HAL_NVIC_EnableIRQ                       0x08000f1b   Thumb Code    26  stm32f7xx_hal_cortex.o(i.HAL_NVIC_EnableIRQ)
    HAL_NVIC_SetPriority                     0x08000f35   Thumb Code   124  stm32f7xx_hal_cortex.o(i.HAL_NVIC_SetPriority)
    HAL_NVIC_SetPriorityGrouping             0x08000fb1   Thumb Code    32  stm32f7xx_hal_cortex.o(i.HAL_NVIC_SetPriorityGrouping)
    HAL_PWREx_EnableOverDrive                0x08000fd9   Thumb Code   136  stm32f7xx_hal_pwr_ex.o(i.HAL_PWREx_EnableOverDrive)
    HAL_RCC_ClockConfig                      0x08001069   Thumb Code   608  stm32f7xx_hal_rcc.o(i.HAL_RCC_ClockConfig)
    HAL_RCC_GetHCLKFreq                      0x080012d1   Thumb Code    42  stm32f7xx_hal_rcc.o(i.HAL_RCC_GetHCLKFreq)
    HAL_RCC_GetSysClockFreq                  0x08001309   Thumb Code   168  stm32f7xx_hal_rcc.o(i.HAL_RCC_GetSysClockFreq)
    HAL_RCC_OscConfig                        0x080013bd   Thumb Code  1356  stm32f7xx_hal_rcc.o(i.HAL_RCC_OscConfig)
    HAL_SD_CheckWriteOperation               0x0800190d   Thumb Code   136  stm32f7xx_hal_sd.o(i.HAL_SD_CheckWriteOperation)
    HAL_SD_DMA_TxCpltCallback                0x08001995   Thumb Code     2  stm32f7xx_hal_sd.o(i.HAL_SD_DMA_TxCpltCallback)
    HAL_SD_DMA_TxErrorCallback               0x08001997   Thumb Code     2  stm32f7xx_hal_sd.o(i.HAL_SD_DMA_TxErrorCallback)
    HAL_SD_GetStatus                         0x08001999   Thumb Code    34  stm32f7xx_hal_sd.o(i.HAL_SD_GetStatus)
    HAL_SD_Get_CardInfo                      0x080019bb   Thumb Code   708  stm32f7xx_hal_sd.o(i.HAL_SD_Get_CardInfo)
    HAL_SD_IRQHandler                        0x08001c7f   Thumb Code   162  stm32f7xx_hal_sd.o(i.HAL_SD_IRQHandler)
    HAL_SD_Init                              0x08001d21   Thumb Code   156  stm32f7xx_hal_sd.o(i.HAL_SD_Init)
    HAL_SD_MspInit                           0x08001dbd   Thumb Code     2  stm32f7xx_hal_sd.o(i.HAL_SD_MspInit)
    HAL_SD_ReadBlocks                        0x08001dbf   Thumb Code   468  stm32f7xx_hal_sd.o(i.HAL_SD_ReadBlocks)
    HAL_SD_StopTransfer                      0x08001f93   Thumb Code    54  stm32f7xx_hal_sd.o(i.HAL_SD_StopTransfer)
    HAL_SD_WideBusOperation_Config           0x08001fc9   Thumb Code   126  stm32f7xx_hal_sd.o(i.HAL_SD_WideBusOperation_Config)
    HAL_SD_WriteBlocks                       0x08002047   Thumb Code   622  stm32f7xx_hal_sd.o(i.HAL_SD_WriteBlocks)
    HAL_SD_WriteBlocks_DMA                   0x080022b5   Thumb Code   274  stm32f7xx_hal_sd.o(i.HAL_SD_WriteBlocks_DMA)
    HAL_SD_XferCpltCallback                  0x080023d1   Thumb Code     2  main.o(i.HAL_SD_XferCpltCallback)
    HAL_SD_XferErrorCallback                 0x080023d3   Thumb Code     2  stm32f7xx_hal_sd.o(i.HAL_SD_XferErrorCallback)
    HAL_SYSTICK_Config                       0x080023d5   Thumb Code    52  stm32f7xx_hal_cortex.o(i.HAL_SYSTICK_Config)
    HardFault_Handler                        0x08002409   Thumb Code     4  stm32f7xx_it.o(i.HardFault_Handler)
    MemManage_Handler                        0x0800240d   Thumb Code     4  stm32f7xx_it.o(i.MemManage_Handler)
    NMI_Handler                              0x08002411   Thumb Code     2  stm32f7xx_it.o(i.NMI_Handler)
    PendSV_Handler                           0x0800244d   Thumb Code     2  stm32f7xx_it.o(i.PendSV_Handler)
    SDMMC1_IRQHandler                        0x080024ed   Thumb Code     8  stm32f7xx_it.o(i.SDMMC1_IRQHandler)
    SDMMC_DataConfig                         0x080024f5   Thumb Code    44  stm32f7xx_ll_sdmmc.o(i.SDMMC_DataConfig)
    SDMMC_GetCommandResponse                 0x08002521   Thumb Code     8  stm32f7xx_ll_sdmmc.o(i.SDMMC_GetCommandResponse)
    SDMMC_GetPowerState                      0x08002529   Thumb Code    10  stm32f7xx_ll_sdmmc.o(i.SDMMC_GetPowerState)
    SDMMC_GetResponse                        0x08002533   Thumb Code    22  stm32f7xx_ll_sdmmc.o(i.SDMMC_GetResponse)
    SDMMC_Init                               0x08002549   Thumb Code    52  stm32f7xx_ll_sdmmc.o(i.SDMMC_Init)
    SDMMC_PowerState_ON                      0x0800257d   Thumb Code    10  stm32f7xx_ll_sdmmc.o(i.SDMMC_PowerState_ON)
    SDMMC_ReadFIFO                           0x08002587   Thumb Code     8  stm32f7xx_ll_sdmmc.o(i.SDMMC_ReadFIFO)
    SDMMC_SendCommand                        0x0800258f   Thumb Code    40  stm32f7xx_ll_sdmmc.o(i.SDMMC_SendCommand)
    SDMMC_WriteFIFO                          0x080025b7   Thumb Code    12  stm32f7xx_ll_sdmmc.o(i.SDMMC_WriteFIFO)
    SD_initialize                            0x080030bd   Thumb Code    34  sd_diskio.o(i.SD_initialize)
    SD_ioctl                                 0x080030e5   Thumb Code   118  sd_diskio.o(i.SD_ioctl)
    SD_read                                  0x08003161   Thumb Code    44  sd_diskio.o(i.SD_read)
    SD_status                                0x0800318d   Thumb Code    40  sd_diskio.o(i.SD_status)
    SD_write                                 0x080031bd   Thumb Code    76  sd_diskio.o(i.SD_write)
    SVC_Handler                              0x0800320d   Thumb Code     2  stm32f7xx_it.o(i.SVC_Handler)
    SysTick_Handler                          0x0800320f   Thumb Code     8  stm32f7xx_it.o(i.SysTick_Handler)
    SystemInit                               0x08003285   Thumb Code    82  system_stm32f7xx.o(i.SystemInit)
    UsageFault_Handler                       0x080032e9   Thumb Code     4  stm32f7xx_it.o(i.UsageFault_Handler)
    __scatterload_copy                       0x080032ed   Thumb Code    14  handlers.o(i.__scatterload_copy)
    __scatterload_null                       0x080032fb   Thumb Code     2  handlers.o(i.__scatterload_null)
    __scatterload_zeroinit                   0x080032fd   Thumb Code    14  handlers.o(i.__scatterload_zeroinit)
    clust2sect                               0x080034b1   Thumb Code    32  ff.o(i.clust2sect)
    disk_initialize                          0x08003a59   Thumb Code    40  diskio.o(i.disk_initialize)
    disk_ioctl                               0x08003a85   Thumb Code    36  diskio.o(i.disk_ioctl)
    disk_read                                0x08003aad   Thumb Code    42  diskio.o(i.disk_read)
    disk_status                              0x08003add   Thumb Code    24  diskio.o(i.disk_status)
    disk_write                               0x08003af9   Thumb Code    42  diskio.o(i.disk_write)
    f_close                                  0x08003b51   Thumb Code    46  ff.o(i.f_close)
    f_mkfs                                   0x08003b81   Thumb Code  1580  ff.o(i.f_mkfs)
    f_mount                                  0x080041c5   Thumb Code    96  ff.o(i.f_mount)
    f_open                                   0x08004229   Thumb Code   446  ff.o(i.f_open)
    f_sync                                   0x080043e7   Thumb Code   202  ff.o(i.f_sync)
    f_write                                  0x080044b1   Thumb Code   598  ff.o(i.f_write)
    get_fat                                  0x08004b81   Thumb Code   238  ff.o(i.get_fat)
    get_fattime                              0x08004c6f   Thumb Code     4  diskio.o(i.get_fattime)
    main                                     0x08004dc9   Thumb Code   170  main.o(i.main)
    put_fat                                  0x08004f21   Thumb Code   326  ff.o(i.put_fat)
    setSDBlocking                            0x080050e1   Thumb Code     6  sd_diskio.o(i.setSDBlocking)
    APBAHBPrescTable                         0x08006323   Data          16  stm32f7xx_hal_rcc.o(.constdata)
    SD_Driver                                0x0800633c   Data          20  sd_diskio.o(.constdata)
    GPIO_PIN                                 0x080063fc   Data           4  stm32746g_discovery.o(.constdata)
    BUTTON_PIN                               0x08006400   Data           6  stm32746g_discovery.o(.constdata)
    BUTTON_IRQn                              0x08006406   Data           6  stm32746g_discovery.o(.constdata)
    COM_TX_PIN                               0x0800640c   Data           2  stm32746g_discovery.o(.constdata)
    COM_RX_PIN                               0x0800640e   Data           2  stm32746g_discovery.o(.constdata)
    COM_TX_AF                                0x08006410   Data           2  stm32746g_discovery.o(.constdata)
    COM_RX_AF                                0x08006412   Data           2  stm32746g_discovery.o(.constdata)
    Region$$Table$$Base                      0x08006414   Number         0  anon$$obj.o(Region$$Table)
    Region$$Table$$Limit                     0x08006434   Number         0  anon$$obj.o(Region$$Table)
    SDPath                                   0x20000000   Data           4  main.o(.data)
    SystemCoreClock                          0x20000018   Data           4  system_stm32f7xx.o(.data)
    AHBPrescTable                            0x2000001c   Data          16  system_stm32f7xx.o(.data)
    SDFatFs                                  0x2000002c   Data         560  main.o(.bss)
    MyFile                                   0x2000025c   Data         556  main.o(.bss)
    disk                                     0x20000488   Data          12  ff_gen_drv.o(.bss)
    __initial_sp                             0x20000b48   Data           0  startup_stm32f746xx.o(STACK)



==============================================================================

Memory Map of the image

  Image Entry point : 0x080001c9

  Load Region LR_IROM1 (Base: 0x08000000, Size: 0x00006460, Max: 0x00100000, ABSOLUTE)

    Execution Region ER_IROM1 (Base: 0x08000000, Size: 0x00006434, Max: 0x00100000, ABSOLUTE)

    Base Addr    Size         Type   Attr      Idx    E Section Name        Object

    0x08000000   0x000001c8   Data   RO         2640    RESET               startup_stm32f746xx.o
    0x080001c8   0x00000000   Code   RO         3036  * .ARM.Collect$$$$00000000  mc_w.l(entry.o)
    0x080001c8   0x00000004   Code   RO         3043    .ARM.Collect$$$$00000001  mc_w.l(entry2.o)
    0x080001cc   0x00000004   Code   RO         3046    .ARM.Collect$$$$00000004  mc_w.l(entry5.o)
    0x080001d0   0x00000000   Code   RO         3048    .ARM.Collect$$$$00000008  mc_w.l(entry7b.o)
    0x080001d0   0x00000000   Code   RO         3050    .ARM.Collect$$$$0000000A  mc_w.l(entry8b.o)
    0x080001d0   0x00000008   Code   RO         3051    .ARM.Collect$$$$0000000B  mc_w.l(entry9a.o)
    0x080001d8   0x00000000   Code   RO         3053    .ARM.Collect$$$$0000000D  mc_w.l(entry10a.o)
    0x080001d8   0x00000000   Code   RO         3055    .ARM.Collect$$$$0000000F  mc_w.l(entry11a.o)
    0x080001d8   0x00000004   Code   RO         3044    .ARM.Collect$$$$00002712  mc_w.l(entry2.o)
    0x080001dc   0x00000024   Code   RO         2641    .text               startup_stm32f746xx.o
    0x08000200   0x00000062   Code   RO         3039    .text               mc_w.l(uldiv.o)
    0x08000262   0x0000001e   Code   RO         3057    .text               mc_w.l(llshl.o)
    0x08000280   0x00000020   Code   RO         3059    .text               mc_w.l(llushr.o)
    0x080002a0   0x00000024   Code   RO         3061    .text               mc_w.l(init.o)
    0x080002c4   0x00000060   Code   RO         2657    i.BSP_LED_Init      stm32746g_discovery.o
    0x08000324   0x00000024   Code   RO         2659    i.BSP_LED_On        stm32746g_discovery.o
    0x08000348   0x00000020   Code   RO         2660    i.BSP_LED_Toggle    stm32746g_discovery.o
    0x08000368   0x00000010   Code   RO         2869    i.BSP_SD_DMA_Rx_IRQHandler  stm32746g_discovery_sd.o
    0x08000378   0x00000010   Code   RO         2870    i.BSP_SD_DMA_Tx_IRQHandler  stm32746g_discovery_sd.o
    0x08000388   0x0000004c   Code   RO         2872    i.BSP_SD_Detect_MspInit  stm32746g_discovery_sd.o
    0x080003d4   0x00000014   Code   RO         2874    i.BSP_SD_GetCardInfo  stm32746g_discovery_sd.o
    0x080003e8   0x00000010   Code   RO         2875    i.BSP_SD_GetStatus  stm32746g_discovery_sd.o
    0x080003f8   0x00000024   Code   RO         2876    i.BSP_SD_GetTransferStatus  stm32746g_discovery_sd.o
    0x0800041c   0x00000010   Code   RO         2877    i.BSP_SD_IRQHandler  stm32746g_discovery_sd.o
    0x0800042c   0x00000064   Code   RO         2879    i.BSP_SD_Init       stm32746g_discovery_sd.o
    0x08000490   0x00000020   Code   RO         2880    i.BSP_SD_IsDetected  stm32746g_discovery_sd.o
    0x080004b0   0x0000019c   Code   RO         2882    i.BSP_SD_MspInit    stm32746g_discovery_sd.o
    0x0800064c   0x00000030   Code   RO         2883    i.BSP_SD_ReadBlocks  stm32746g_discovery_sd.o
    0x0800067c   0x00000030   Code   RO         2885    i.BSP_SD_WriteBlocks  stm32746g_discovery_sd.o
    0x080006ac   0x00000034   Code   RO         2887    i.BSP_SD_WriteBlocks_DMANB  stm32746g_discovery_sd.o
    0x080006e0   0x00000004   Code   RO            4    i.BusFault_Handler  stm32f7xx_it.o
    0x080006e4   0x00000068   Code   RO          257    i.CPU_CACHE_Enable  main.o
    0x0800074c   0x00000008   Code   RO            5    i.DMA2_Stream3_IRQHandler  stm32f7xx_it.o
    0x08000754   0x00000008   Code   RO            6    i.DMA2_Stream6_IRQHandler  stm32f7xx_it.o
    0x0800075c   0x00000034   Code   RO         1976    i.DMA_CalcBaseAndBitshift  stm32f7xx_hal_dma.o
    0x08000790   0x0000002c   Code   RO         1977    i.DMA_SetConfig     stm32f7xx_hal_dma.o
    0x080007bc   0x00000002   Code   RO            7    i.DebugMon_Handler  stm32f7xx_it.o
    0x080007be   0x00000016   Code   RO          258    i.Error_Handler     main.o
    0x080007d4   0x00000012   Code   RO         2246    i.FATFS_LinkDriver  ff_gen_drv.o
    0x080007e6   0x00000002   PAD
    0x080007e8   0x00000054   Code   RO         2247    i.FATFS_LinkDriverEx  ff_gen_drv.o
    0x0800083c   0x0000000e   Code   RO         2248    i.FATFS_UnLinkDriver  ff_gen_drv.o
    0x0800084a   0x00000002   PAD
    0x0800084c   0x00000044   Code   RO         2249    i.FATFS_UnLinkDriverEx  ff_gen_drv.o
    0x08000890   0x0000005e   Code   RO         1978    i.HAL_DMA_Abort     stm32f7xx_hal_dma.o
    0x080008ee   0x00000064   Code   RO         1979    i.HAL_DMA_DeInit    stm32f7xx_hal_dma.o
    0x08000952   0x00000002   PAD
    0x08000954   0x00000218   Code   RO         1982    i.HAL_DMA_IRQHandler  stm32f7xx_hal_dma.o
    0x08000b6c   0x00000084   Code   RO         1983    i.HAL_DMA_Init      stm32f7xx_hal_dma.o
    0x08000bf0   0x0000006a   Code   RO         1986    i.HAL_DMA_Start_IT  stm32f7xx_hal_dma.o
    0x08000c5a   0x0000001a   Code   RO         1729    i.HAL_Delay         stm32f7xx_hal.o
    0x08000c74   0x00000218   Code   RO         2062    i.HAL_GPIO_Init     stm32f7xx_hal_gpio.o
    0x08000e8c   0x00000010   Code   RO         2064    i.HAL_GPIO_ReadPin  stm32f7xx_hal_gpio.o
    0x08000e9c   0x00000008   Code   RO         2065    i.HAL_GPIO_TogglePin  stm32f7xx_hal_gpio.o
    0x08000ea4   0x0000000c   Code   RO         2066    i.HAL_GPIO_WritePin  stm32f7xx_hal_gpio.o
    0x08000eb0   0x0000000c   Code   RO         1737    i.HAL_GetTick       stm32f7xx_hal.o
    0x08000ebc   0x00000010   Code   RO         1738    i.HAL_IncTick       stm32f7xx_hal.o
    0x08000ecc   0x00000028   Code   RO         1739    i.HAL_Init          stm32f7xx_hal.o
    0x08000ef4   0x00000024   Code   RO         1740    i.HAL_InitTick      stm32f7xx_hal.o
    0x08000f18   0x00000002   Code   RO         1742    i.HAL_MspInit       stm32f7xx_hal.o
    0x08000f1a   0x0000001a   Code   RO         1556    i.HAL_NVIC_EnableIRQ  stm32f7xx_hal_cortex.o
    0x08000f34   0x0000007c   Code   RO         1562    i.HAL_NVIC_SetPriority  stm32f7xx_hal_cortex.o
    0x08000fb0   0x00000028   Code   RO         1563    i.HAL_NVIC_SetPriorityGrouping  stm32f7xx_hal_cortex.o
    0x08000fd8   0x00000090   Code   RO         1085    i.HAL_PWREx_EnableOverDrive  stm32f7xx_hal_pwr_ex.o
    0x08001068   0x00000268   Code   RO          320    i.HAL_RCC_ClockConfig  stm32f7xx_hal_rcc.o
    0x080012d0   0x00000038   Code   RO          325    i.HAL_RCC_GetHCLKFreq  stm32f7xx_hal_rcc.o
    0x08001308   0x000000b4   Code   RO          329    i.HAL_RCC_GetSysClockFreq  stm32f7xx_hal_rcc.o
    0x080013bc   0x00000550   Code   RO          332    i.HAL_RCC_OscConfig  stm32f7xx_hal_rcc.o
    0x0800190c   0x00000088   Code   RO          491    i.HAL_SD_CheckWriteOperation  stm32f7xx_hal_sd.o
    0x08001994   0x00000002   Code   RO          494    i.HAL_SD_DMA_TxCpltCallback  stm32f7xx_hal_sd.o
    0x08001996   0x00000002   Code   RO          495    i.HAL_SD_DMA_TxErrorCallback  stm32f7xx_hal_sd.o
    0x08001998   0x00000022   Code   RO          499    i.HAL_SD_GetStatus  stm32f7xx_hal_sd.o
    0x080019ba   0x000002c4   Code   RO          500    i.HAL_SD_Get_CardInfo  stm32f7xx_hal_sd.o
    0x08001c7e   0x000000a2   Code   RO          502    i.HAL_SD_IRQHandler  stm32f7xx_hal_sd.o
    0x08001d20   0x0000009c   Code   RO          503    i.HAL_SD_Init       stm32f7xx_hal_sd.o
    0x08001dbc   0x00000002   Code   RO          505    i.HAL_SD_MspInit    stm32f7xx_hal_sd.o
    0x08001dbe   0x000001d4   Code   RO          506    i.HAL_SD_ReadBlocks  stm32f7xx_hal_sd.o
    0x08001f92   0x00000036   Code   RO          509    i.HAL_SD_StopTransfer  stm32f7xx_hal_sd.o
    0x08001fc8   0x0000007e   Code   RO          510    i.HAL_SD_WideBusOperation_Config  stm32f7xx_hal_sd.o
    0x08002046   0x0000026e   Code   RO          511    i.HAL_SD_WriteBlocks  stm32f7xx_hal_sd.o
    0x080022b4   0x0000011c   Code   RO          512    i.HAL_SD_WriteBlocks_DMA  stm32f7xx_hal_sd.o
    0x080023d0   0x00000002   Code   RO          259    i.HAL_SD_XferCpltCallback  main.o
    0x080023d2   0x00000002   Code   RO          514    i.HAL_SD_XferErrorCallback  stm32f7xx_hal_sd.o
    0x080023d4   0x00000034   Code   RO         1567    i.HAL_SYSTICK_Config  stm32f7xx_hal_cortex.o
    0x08002408   0x00000004   Code   RO            8    i.HardFault_Handler  stm32f7xx_it.o
    0x0800240c   0x00000004   Code   RO            9    i.MemManage_Handler  stm32f7xx_it.o
    0x08002410   0x00000002   Code   RO           10    i.NMI_Handler       stm32f7xx_it.o
    0x08002412   0x00000002   PAD
    0x08002414   0x00000010   Code   RO         1569    i.NVIC_GetPriorityGrouping  stm32f7xx_hal_cortex.o
    0x08002424   0x00000028   Code   RO         1570    i.NVIC_SetPriority  stm32f7xx_hal_cortex.o
    0x0800244c   0x00000002   Code   RO           11    i.PendSV_Handler    stm32f7xx_it.o
    0x0800244e   0x00000002   PAD
    0x08002450   0x0000009c   Code   RO          260    i.SCB_EnableDCache  main.o
    0x080024ec   0x00000008   Code   RO           12    i.SDMMC1_IRQHandler  stm32f7xx_it.o
    0x080024f4   0x0000002c   Code   RO         1880    i.SDMMC_DataConfig  stm32f7xx_ll_sdmmc.o
    0x08002520   0x00000008   Code   RO         1881    i.SDMMC_GetCommandResponse  stm32f7xx_ll_sdmmc.o
    0x08002528   0x0000000a   Code   RO         1884    i.SDMMC_GetPowerState  stm32f7xx_ll_sdmmc.o
    0x08002532   0x00000016   Code   RO         1885    i.SDMMC_GetResponse  stm32f7xx_ll_sdmmc.o
    0x08002548   0x00000034   Code   RO         1886    i.SDMMC_Init        stm32f7xx_ll_sdmmc.o
    0x0800257c   0x0000000a   Code   RO         1888    i.SDMMC_PowerState_ON  stm32f7xx_ll_sdmmc.o
    0x08002586   0x00000008   Code   RO         1889    i.SDMMC_ReadFIFO    stm32f7xx_ll_sdmmc.o
    0x0800258e   0x00000028   Code   RO         1890    i.SDMMC_SendCommand  stm32f7xx_ll_sdmmc.o
    0x080025b6   0x0000000c   Code   RO         1892    i.SDMMC_WriteFIFO   stm32f7xx_ll_sdmmc.o
    0x080025c2   0x00000036   Code   RO          515    i.SD_CmdError       stm32f7xx_hal_sd.o
    0x080025f8   0x00000184   Code   RO          516    i.SD_CmdResp1Error  stm32f7xx_hal_sd.o
    0x0800277c   0x00000046   Code   RO          517    i.SD_CmdResp2Error  stm32f7xx_hal_sd.o
    0x080027c2   0x00000032   Code   RO          518    i.SD_CmdResp3Error  stm32f7xx_hal_sd.o
    0x080027f4   0x000000ae   Code   RO          519    i.SD_CmdResp6Error  stm32f7xx_hal_sd.o
    0x080028a2   0x00000066   Code   RO          520    i.SD_CmdResp7Error  stm32f7xx_hal_sd.o
    0x08002908   0x00000020   Code   RO          523    i.SD_DMA_TxCplt     stm32f7xx_hal_sd.o
    0x08002928   0x0000000e   Code   RO          524    i.SD_DMA_TxError    stm32f7xx_hal_sd.o
    0x08002936   0x0000015a   Code   RO          525    i.SD_FindSCR        stm32f7xx_hal_sd.o
    0x08002a90   0x0000001e   Code   RO          526    i.SD_GetState       stm32f7xx_hal_sd.o
    0x08002aae   0x0000010a   Code   RO          527    i.SD_Initialize_Cards  stm32f7xx_hal_sd.o
    0x08002bb8   0x000001d8   Code   RO          528    i.SD_IsCardProgramming  stm32f7xx_hal_sd.o
    0x08002d90   0x0000016c   Code   RO          530    i.SD_PowerON        stm32f7xx_hal_sd.o
    0x08002efc   0x00000038   Code   RO          531    i.SD_Select_Deselect  stm32f7xx_hal_sd.o
    0x08002f34   0x00000052   Code   RO          532    i.SD_SendStatus     stm32f7xx_hal_sd.o
    0x08002f86   0x0000009a   Code   RO          533    i.SD_WideBus_Disable  stm32f7xx_hal_sd.o
    0x08003020   0x0000009a   Code   RO          534    i.SD_WideBus_Enable  stm32f7xx_hal_sd.o
    0x080030ba   0x00000002   PAD
    0x080030bc   0x00000028   Code   RO         2125    i.SD_initialize     sd_diskio.o
    0x080030e4   0x0000007c   Code   RO         2126    i.SD_ioctl          sd_diskio.o
    0x08003160   0x0000002c   Code   RO         2127    i.SD_read           sd_diskio.o
    0x0800318c   0x00000030   Code   RO         2128    i.SD_status         sd_diskio.o
    0x080031bc   0x00000050   Code   RO         2129    i.SD_write          sd_diskio.o
    0x0800320c   0x00000002   Code   RO           13    i.SVC_Handler       stm32f7xx_it.o
    0x0800320e   0x00000008   Code   RO           14    i.SysTick_Handler   stm32f7xx_it.o
    0x08003216   0x0000006e   Code   RO          261    i.SystemClock_Config  main.o
    0x08003284   0x00000064   Code   RO         3004    i.SystemInit        system_stm32f7xx.o
    0x080032e8   0x00000004   Code   RO           15    i.UsageFault_Handler  stm32f7xx_it.o
    0x080032ec   0x0000000e   Code   RO         3065    i.__scatterload_copy  mc_w.l(handlers.o)
    0x080032fa   0x00000002   Code   RO         3066    i.__scatterload_null  mc_w.l(handlers.o)
    0x080032fc   0x0000000e   Code   RO         3067    i.__scatterload_zeroinit  mc_w.l(handlers.o)
    0x0800330a   0x00000002   PAD
    0x0800330c   0x00000098   Code   RO         2296    i.check_fs          ff.o
    0x080033a4   0x00000014   Code   RO         2297    i.chk_chr           ff.o
    0x080033b8   0x00000090   Code   RO         2298    i.chk_lock          ff.o
    0x08003448   0x00000030   Code   RO         2299    i.clear_lock        ff.o
    0x08003478   0x00000038   Code   RO         2300    i.clmt_clust        ff.o
    0x080034b0   0x00000020   Code   RO         2301    i.clust2sect        ff.o
    0x080034d0   0x000000ea   Code   RO         2302    i.create_chain      ff.o
    0x080035ba   0x00000002   PAD
    0x080035bc   0x00000120   Code   RO         2303    i.create_name       ff.o
    0x080036dc   0x0000004c   Code   RO         2304    i.dec_lock          ff.o
    0x08003728   0x00000064   Code   RO         2305    i.dir_alloc         ff.o
    0x0800378c   0x00000064   Code   RO         2306    i.dir_find          ff.o
    0x080037f0   0x0000015a   Code   RO         2307    i.dir_next          ff.o
    0x0800394a   0x00000046   Code   RO         2309    i.dir_register      ff.o
    0x08003990   0x000000c8   Code   RO         2311    i.dir_sdi           ff.o
    0x08003a58   0x0000002c   Code   RO         2190    i.disk_initialize   diskio.o
    0x08003a84   0x00000028   Code   RO         2191    i.disk_ioctl        diskio.o
    0x08003aac   0x00000030   Code   RO         2192    i.disk_read         diskio.o
    0x08003adc   0x0000001c   Code   RO         2193    i.disk_status       diskio.o
    0x08003af8   0x00000030   Code   RO         2194    i.disk_write        diskio.o
    0x08003b28   0x00000028   Code   RO         2312    i.enq_lock          ff.o
    0x08003b50   0x0000002e   Code   RO         2314    i.f_close           ff.o
    0x08003b7e   0x00000002   PAD
    0x08003b80   0x00000644   Code   RO         2320    i.f_mkfs            ff.o
    0x080041c4   0x00000064   Code   RO         2321    i.f_mount           ff.o
    0x08004228   0x000001be   Code   RO         2322    i.f_open            ff.o
    0x080043e6   0x000000ca   Code   RO         2331    i.f_sync            ff.o
    0x080044b0   0x00000256   Code   RO         2335    i.f_write           ff.o
    0x08004706   0x00000002   PAD
    0x08004708   0x000003dc   Code   RO         2336    i.find_volume       ff.o
    0x08004ae4   0x0000009c   Code   RO         2337    i.follow_path       ff.o
    0x08004b80   0x000000ee   Code   RO         2338    i.get_fat           ff.o
    0x08004c6e   0x00000004   Code   RO         2195    i.get_fattime       diskio.o
    0x08004c72   0x00000048   Code   RO         2340    i.get_ldnumber      ff.o
    0x08004cba   0x00000002   PAD
    0x08004cbc   0x000000e8   Code   RO         2341    i.inc_lock          ff.o
    0x08004da4   0x00000022   Code   RO         2342    i.ld_clust          ff.o
    0x08004dc6   0x00000002   PAD
    0x08004dc8   0x000000cc   Code   RO          262    i.main              main.o
    0x08004e94   0x00000026   Code   RO         2343    i.mem_cmp           ff.o
    0x08004eba   0x0000001a   Code   RO         2344    i.mem_cpy           ff.o
    0x08004ed4   0x00000014   Code   RO         2345    i.mem_set           ff.o
    0x08004ee8   0x00000038   Code   RO         2346    i.move_window       ff.o
    0x08004f20   0x00000146   Code   RO         2347    i.put_fat           ff.o
    0x08005066   0x0000007a   Code   RO         2349    i.remove_chain      ff.o
    0x080050e0   0x0000000c   Code   RO         2130    i.setSDBlocking     sd_diskio.o
    0x080050ec   0x00000010   Code   RO         2350    i.st_clust          ff.o
    0x080050fc   0x000000f4   Code   RO         2351    i.sync_fs           ff.o
    0x080051f0   0x00000060   Code   RO         2352    i.sync_window       ff.o
    0x08005250   0x00000042   Code   RO         2353    i.validate          ff.o
    0x08005292   0x00001091   Data   RO          264    .constdata          main.o
    0x08006323   0x00000010   Data   RO          333    .constdata          stm32f7xx_hal_rcc.o
    0x08006333   0x00000008   Data   RO         1987    .constdata          stm32f7xx_hal_dma.o
    0x0800633b   0x00000001   PAD
    0x0800633c   0x00000014   Data   RO         2131    .constdata          sd_diskio.o
    0x08006350   0x000000ac   Data   RO         2355    .constdata          ff.o
    0x080063fc   0x00000018   Data   RO         2683    .constdata          stm32746g_discovery.o
    0x08006414   0x00000020   Data   RO         3063    Region$$Table       anon$$obj.o


    Execution Region RW_IRAM1 (Base: 0x20000000, Size: 0x00000b48, Max: 0x00050000, ABSOLUTE)

    Base Addr    Size         Type   Attr      Idx    E Section Name        Object

    0x20000000   0x00000005   Data   RW          265    .data               main.o
    0x20000005   0x00000003   PAD
    0x20000008   0x00000004   Data   RW         1745    .data               stm32f7xx_hal.o
    0x2000000c   0x00000002   Data   RW         2132    .data               sd_diskio.o
    0x2000000e   0x00000002   PAD
    0x20000010   0x00000006   Data   RW         2356    .data               ff.o
    0x20000016   0x00000002   PAD
    0x20000018   0x00000014   Data   RW         3005    .data               system_stm32f7xx.o
    0x2000002c   0x0000045c   Zero   RW          263    .bss                main.o
    0x20000488   0x0000000c   Zero   RW         2250    .bss                ff_gen_drv.o
    0x20000494   0x00000018   Zero   RW         2354    .bss                ff.o
    0x200004ac   0x00000004   PAD
    0x200004b0   0x00000218   Zero   RW         2888    .bss                stm32746g_discovery_sd.o
    0x200006c8   0x00000480   Zero   RW         2638    STACK               startup_stm32f746xx.o


==============================================================================

Image component sizes


      Code (inc. data)   RO Data    RW Data    ZI Data      Debug   Object Name

       212         24          0          0          0       5027   diskio.o
      7632        140        172          6         24      37682   ff.o
       184         12          0          0         12       3455   ff_gen_drv.o
       598         50       4241          5       1116      36248   main.o
       348         30         20          2          0       5784   sd_diskio.o
        36          8        456          0       1152        860   startup_stm32f746xx.o
       164         30         24          0          0       4043   stm32746g_discovery.o
       888        100          0          0        536      11863   stm32746g_discovery_sd.o
       132         16          0          4          0       4932   stm32f7xx_hal.o
       298         22          0          0          0      36559   stm32f7xx_hal_cortex.o
      1064         16          8          0          0       6612   stm32f7xx_hal_dma.o
       572         52          0          0          0       4148   stm32f7xx_hal_gpio.o
       144          8          0          0          0       1456   stm32f7xx_hal_pwr_ex.o
      2212         48         16          0          0       5293   stm32f7xx_hal_rcc.o
      5566         26          0          0          0      32474   stm32f7xx_hal_sd.o
        56          0          0          0          0     379866   stm32f7xx_it.o
       206          0          0          0          0       7154   stm32f7xx_ll_sdmmc.o
       100         18          0         20          0       1289   system_stm32f7xx.o

    ----------------------------------------------------------------------
     20434        600       4970         44       2844     584745   Object Totals
         0          0         32          0          0          0   (incl. Generated)
        22          0          1          7          4          0   (incl. Padding)

    ----------------------------------------------------------------------

      Code (inc. data)   RO Data    RW Data    ZI Data      Debug   Library Member Name

         0          0          0          0          0          0   entry.o
         0          0          0          0          0          0   entry10a.o
         0          0          0          0          0          0   entry11a.o
         8          4          0          0          0          0   entry2.o
         4          0          0          0          0          0   entry5.o
         0          0          0          0          0          0   entry7b.o
         0          0          0          0          0          0   entry8b.o
         8          4          0          0          0          0   entry9a.o
        30          0          0          0          0          0   handlers.o
        36          8          0          0          0         68   init.o
        30          0          0          0          0         68   llshl.o
        32          0          0          0          0         68   llushr.o
        98          0          0          0          0         92   uldiv.o

    ----------------------------------------------------------------------
       248         16          0          0          0        296   Library Totals
         2          0          0          0          0          0   (incl. Padding)

    ----------------------------------------------------------------------

      Code (inc. data)   RO Data    RW Data    ZI Data      Debug   Library Name

       246         16          0          0          0        296   mc_w.l

    ----------------------------------------------------------------------
       248         16          0          0          0        296   Library Totals

    ----------------------------------------------------------------------

==============================================================================


      Code (inc. data)   RO Data    RW Data    ZI Data      Debug   

     20682        616       4970         44       2844     570193   Grand Totals
     20682        616       4970         44       2844     570193   ELF Image Totals
     20682        616       4970         44          0          0   ROM Totals

==============================================================================

    Total RO  Size (Code + RO Data)                25652 (  25.05kB)
    Total RW  Size (RW Data + ZI Data)              2888 (   2.82kB)
    Total ROM Size (Code + RO Data + RW Data)      25696 (  25.09kB)

==============================================================================

